:020000040000FA
:10000000808300004901000051010000011500003B
:1000100000000000000000000000000000000000E0
:10002000000000000000000000000000550100007A
:10003000000000000000000057010000590100000E
:100040005B0100005B0100005B0100005B01000040
:100050005B0100005B0100005B0100005B01000030
:100060004B140000570E00005B0100005B01000014
:100070005B0100005B0100005B0100005B01000010
:100080005B0100005B0100005B0100005B01000000
:100090005B0100005B0100005B0100005B010000F0
:1000A00000F002F800F040F80CA030C8083824181E
:1000B0002D18A246671EAB4654465D46AC4201D1A0
:1000C00000F032F87E460F3E0FCCB6460126334292
:1000D00000D0FB1AA246AB4633431847441C00002D
:1000E000641C0000103A02D378C878C1FAD85207CD
:1000F00001D330C830C101D504680C6070470000DE
:100100000023002400250026103A01D378C1FBD833
:10011000520700D330C100D50B6070471FB5C046F1
:10012000C0461FBD10B510BD01F0A3FB1146FFF77F
:10013000F5FF00F0E7FA01F0BBFB03B4FFF7F2FFB5
:1001400003BC01F0BFFB0000074880470748004799
:10015000FEE7FEE7FEE7FEE7FEE7FEE704480549A7
:10016000054A064B7047000081010000A100000015
:10017000808000008083000080810000808100007A
:100180000348044908607047014802490860704705
:1001900000E1F5050480000008B5002002230322D9
:1001A00012020421009001F094FB0020012302467A
:1001B0000521009001F08DFB012000230202194669
:1001C0000090184601F085FB012000230202014641
:1001D0000090184601F07DFB012000230202062159
:1001E0000090184601F075FB012000230202014631
:1001F000009001F06EFB0120102303221202022165
:100200000090002001F065FB01201123032212025F
:1002100003210090002001F05CFB01201723032242
:10022000120206210090002001F053FB0120182348
:100230005A0107210090002001F04BFB01201923F7
:10024000032212020021009001F043FB0120002351
:10025000032212020321009001F03BFB08BD10B500
:10026000002005210907088008201749088005207B
:100270000007408A20218843203005210907488251
:100280000846408A8021884380300521090748823A
:100290000846008A0221884305210907088208468A
:1002A000008A0221884305210907088200BF052032
:1002B0000007808A082108400028F8D000F044F8A0
:1002C000FFF76AFF10BD00000033005001229203C7
:1002D00002430A431A4B1A8001229203024301236C
:1002E0001A430A43164B1A800B225A80704714494E
:1002F00009880F22920191430207920D1143104A7F
:100300001180704700200E49088070470D490C4845
:10031000008802229043801C094A108000BF0846D2
:10032000491E002805D006480088022210400028F7
:10033000F5D10020024A1081104640897047000024
:1003400000150050A086010005200007808880214C
:100350008843803005210907888080203D498881B5
:100360000020888009200880032088810846008AB0
:100370004021884337490882012008810846808847
:10038000400840008880704700BF3249898A202297
:1003900011400029F9D0C1B22E4A1180704700B532
:1003A000034603E01878FFF7EFFF5B1C187800287E
:1003B000F8D100BD00B528A0FFF7F1FF2BA0FFF793
:1003C000EEFF2FA0FFF7EBFF31A0FFF7E8FF00BD26
:1003D00000BF2048808AC007C00F0028F9D01D4800
:1003E0000088C0B2704710B50446F02020400311C9
:1003F0000A2B01DA302000E03720C018C3B21846BB
:10040000FFF7C2FF23071B0F0A2B01DA302000E0A1
:100410003720C018C3B21846FFF7B6FF10BD10B59D
:1004200004462104080EFFF7DEFFE0B2FFF7DBFF12
:1004300010BD10B50446200EFFF7D5FF2102080EAF
:10044000FFF7D1FF2104080EFFF7CDFFE0B2FFF761
:10045000CAFF10BD001000500A0D0A0D2A2A2A2AD0
:100460002A2A2A2A2A2A2A2A2A0000000A0D2A20B1
:10047000554152542054455354202A0A0D0000007F
:100480002A2A2A2A2A2A2A2A2A2A2A2A2A0A0D0033
:100490000A0D48656C6C6F20576F726C6421203DAB
:1004A0003D2055415254207072696E74665F7374BA
:1004B00072696E672829203D3D2E0A0D000000005C
:1004C000F8B50446534804805348844201DD64254E
:1004D0004DE05148844215DC63200001844211DD67
:1004E0000146601A01F0BAF94C49009001F0CAF8CF
:1004F00007464B4901F012FB064601F073F91C3028
:10050000C5B234E063200001844215DC55200001AF
:10051000844211DD0146601A01F0A0F941490090C2
:1005200001F0B0F80746404901F0F8FA064601F03C
:1005300059F9001DC5B21AE055200001844215DCAE
:1005400047200001844211DD0146601A01F086F95E
:100550003449009001F096F807468121C90501F061
:10056000DDFA064601F03EF9C5B200E00025284656
:10057000F8BD70B504462D4884420ADB0146611A75
:100580006422514308464721C90000F0D4FFC5B298
:1005900000E00025284670BD70B50646012189029D
:1005A0004800FFF793FE0720FFF7A1FEFFF7AEFE1E
:1005B00084B200210120C002FFF788FE0720FFF768
:1005C00096FEFFF7A3FE001984B2FFF79BFE2411ED
:1005D000240117480078002802D1FF201449087030
:1005E00013480078854201DD11480578012E02D0BC
:1005F000022E0AD104E02046FFF762FF054606E01E
:100600002046FFF7B6FF054601E0002500BF00BF0A
:10061000284670BD08800000A90600000000F242D4
:1006200000009042000060430000C04171040000DF
:100630008083000010B565A0FFF7B1FE69A0FFF749
:10064000AEFE6EA0FFF7ABFE71A0FFF7A8FE76A08E
:10065000FFF7A5FE0120FFF79FFF0446FFF7C3FE4B
:100660007BA0FFF79CFE10BD10B57BA0FFF797FEA7
:1006700010BD10B57DA0FFF792FE87A0FFF78FFE9B
:100680007AA0FFF78CFE8EA0FFF789FE94A0FFF7FB
:1006900086FEA1A0FFF783FEACA0FFF780FEB3A00B
:1006A000FFF77DFEBAA0FFF77AFEC3A0FFF777FE43
:1006B000C7A0FFF774FEFFF7D7FF10BD70B5054662
:1006C0000026C6A0FFF76BFE14E0012E00D112E059
:1006D000FFF77EFE04466D2C02D0782C08D103E093
:1006E000FFF7C7FF012604E001202880012600E073
:1006F00000BF00BFE9E700BF70BD10B5C6A0FFF79F
:100700004EFE10BD08B500200090FFF7A8FDC7A061
:10071000FFF745FECDA0FFF742FED4A0FFF73FFE56
:10072000D948FFF73CFED948FFF739FED8A0FFF7BC
:1007300036FEDBA0FFF733FEE8A0FFF730FEFFF741
:1007400098FF3CE068460088012800D138E0FFF7B8
:100750003FFE0446742C18D006DC622C21D0702C8D
:1007600019D0712C26D10AE0752C02D0782C21D119
:100770001DE0FFF71FFE6846FFF7A0FF1DE000F039
:10078000F6F96846FFF79AFF17E000F0BEFC6846EE
:10079000FFF794FF11E000F0F9FC6846FFF78EFFC9
:1007A0000BE0FFF747FF6846FFF788FF05E00120F1
:1007B000009002E0FFF758FF01E000BF00BFC1E773
:1007C00000BFCEA0FFF7EBFD00BFFEE70A0D0A0D4C
:1007D0002A2A2A2A2A2A2A2A2A2A2A2A2A2A2A2A79
:1007E000000000000A0D2A2042415454455259206D
:1007F00054455354202A0A0D000000002A2A2A2AB0
:100800002A2A2A2A2A2A2A2A2A2A2A2A0A0D0000D9
:100810000A0D4261747465727920747970653A20AA
:1008200043523230333200000A0D43757272656EE6
:10083000742062617474657279206C6576656C20D1
:10084000286D61782E3078464625293A2030780088
:1008500025206C65667400000A0D4D616B65206192
:100860002063686F696365203A2000000A0D3D3DF2
:100870003D3D3D3D3D3D3D3D3D3D3D3D3D3D3D3DA8
:100880003D3D3D3D3D3D3D3D3D3D3D3D3D3D3D3D98
:100890003D3D0A0D000000003D2044413134353813
:1008A00030205065726970686572616C20457861AE
:1008B0006D706C6573204D656E75203D0A0D0000EE
:1008C000752E2055415254205072696E7420537415
:1008D00072696E67204578616D706C650A0D000065
:1008E000662E202864697361626C656420696E20DD
:1008F00074686973206275696C64292053504920BB
:10090000466C617368204D656D6F72792045786122
:100910006D706C650A0D0000652E20286469736196
:10092000626C656420696E20746869732062756901
:100930006C64292049324320454550524F4D204593
:1009400078616D706C650A0D00000000712E2051F9
:1009500075616472617475726520456E636F64655C
:1009600072204578616D706C650A0D00742E2054FC
:10097000696D657230202850574D302C2050574DEE
:100980003129204578616D706C650A0D000000000A
:10099000702E2054696D657232202850574D322CCC
:1009A0002050574D332C2050574D34292045786125
:1009B0006D706C650A0D0000622E204261747465D2
:1009C0007279204578616D706C650A0D0000000039
:1009D000782E20457869740A0D0A0D000A0D0A0D5B
:1009E0005072657373206D20666F72205065726956
:1009F00070686572616C204578616D706C657320FC
:100A00004D656E75206F72207820746F206578694F
:100A100074203A20000000000A0D2020456E64205A
:100A20006F66207465737473200A0D000A0D4441CB
:100A30003134353830205065726970686572616C88
:100A4000204578616D706C65730A0D002D2D2D2D7C
:100A50002D2D2D2D2D2D2D2D2D2D2D2D2D2D2D2DC6
:100A60002D2D2D2D2D2D2D0A0D0000004265666FB8
:100A700072652072756E6E696E6720746865207489
:100A8000657374733A0A0D00941C0000481C000042
:100A900020203329204275696C642E0A0D00000065
:100AA000506C656173652C20726566657220746F89
:100AB00020444131343538302050657269706865A2
:100AC00072616C204578616D706C6573205573653B
:100AD00072204D616E75616C0A0D0000666F7220A8
:100AE00064657461696C656420696E7374727563A2
:100AF00074696F6E732E0A0D000000000A0D204508
:100B00006E64206F662074657374730A0D000000B4
:100B100070B506460C46154652490E7052490C7087
:100B200052490D7001205249087000F031FF70BD2C
:100B300010B55048008840210840002802D101200B
:100B40004D4908704B482030008802210840002899
:100B500005D14A48007801214840484908700023DF
:100B6000012209218901084600F0D9F910BD3EB5DE
:100B700001200023020206210090184600F0A9FE81
:100B80003FA0FFF70CFC48A0FFF709FC51A0FFF7BE
:100B900006FC5AA0FFF703FC62A0FFF700FC6B49BC
:100BA00003C90291019001A800F029FA684800F0F9
:100BB00023FA012000F0ECFE664800F0A9FF0023B4
:100BC000012209218901084600F0A9F900202B49DA
:100BD0000870294908703DE02848007800280BD0AB
:100BE00000F004FF04465CA0FFF7D9FB2012FFF7DA
:100BF000FAFBE0B2FFF7F7FB1D480078012829D186
:100C000000201B4908705AA0FFF7C9FB5EA0FFF740
:100C1000C6FB144909780812FFF7E5FB114908786B
:100C2000FFF7E1FB5AA0FFF7BAFB0F49097808125A
:100C3000FFF7D9FB0C490878FFF7D5FB56A0FFF763
:100C4000AEFB0A4909780812FFF7CDFB074908787F
:100C5000FFF7C9FB084800780028BDD050A0FFF777
:100C60009EFB3EBD0C8000000D8000000E80000049
:100C70000F800000003000500A8000000B80000050
:100C800051756164726174757265204465636F6447
:100C90006572202F20574B555020636F6E74726F12
:100CA0006C6C65720A0D00004B3120627574746FB4
:100CB0006E20746F2073746172742F73746F702060
:100CC00051756164656320706F6C6C696E670A0DA5
:100CD000000000004B3220627574746F6E20746FD8
:100CE000207465726D696E6174652051756164650B
:100CF0006320746573740A0D000000000A0D205112
:100D0000756164726174757265204465636F6465B2
:100D10007220546573742073746172746564212E3B
:100D2000000000000A0D205072657373204B3220C2
:100D3000627574746F6E20746F207465726D696E65
:100D400061746520746573742E0A0D00CC1B00005D
:100D5000110B0000310B00000A0D20517561646514
:100D60006320506F6C6C696E672044583A20000015
:100D70000A0A0D51756164656320495352207265FA
:100D8000706F72743A0000000A0D2044583A200037
:100D90002044593A2000000020445A3A2000000024
:100DA0000A0D205175616472617475726520446525
:100DB000636F6465722054657374207465726D6925
:100DC0006E6174656421000010B5002819DAA44A28
:100DD00003071B0F083B9B089B00D2588307DC0EC0
:100DE000FF23A3409A438B071B0E8407E40EA34006
:100DF0001A439B4B0407240F083CA408A4001A5173
:100E000018E0984A03231B02D21883089B00D2588B
:100E10008307DC0EFF23A3409A438B071B0E840736
:100E2000E40EA3401A438F4B032424021B198408A9
:100E3000A4001A5110BD8C480078002808D1092060
:100E400001218140874A8032116000BF0020704735
:100E50000020C043FBE7FEB5002605200007008800
:100E6000302188430521090708800846008880084A
:100E700080000880084680880121C9030840C0130B
:100E8000002814D0794800880421084080100028E8
:100E90000DD002267548008802218843801C7349C2
:100EA00008800846008840084000088011E00520BE
:100EB00000078088102108400011002809D0012671
:100EC00001206B4988800846008880218843684952
:100ED0000880022E19D16748006800281ED000BF84
:100EE0006248408800B2074600BF6048808800B270
:100EF000019000BF5D48408900B200905D480568E0
:100F00003846009A0199A84708E0012E06D15A48B0
:100F10000068002802D058480468A047FEBDFFB50D
:100F200081B004460D461646052000078088102132
:100F30008843103005210907888000204C4908812A
:100F4000F0B24880002010E0C2002146D140CFB26C
:100F50004100474A89184F81C2002946D140CFB28B
:100F60004100434A89184F82401C0428ECDB40486A
:100F7000C0890321090288432104890F090208431B
:100F80003B49C8810846C08A0321090288432904D5
:100F9000890F090208433649C88201208880092048
:100FA00000F057F804988006800E802108433049ED
:100FB000088001210920FFF707FF2B48007840082F
:100FC0004000401C28490870092000F03BF805B09B
:100FD000F0BD00B524480078400840002249087060
:100FE00001202349888008460088802188432049C1
:100FF0000880FFF720FF00BD1E49086070470521EB
:10100000090789880122D203914389180522120712
:10101000918001784278114342881143134A11812B
:101020008188D180704710B50020104908810520C3
:10103000000780888901884305210907888000F01E
:101040008DFC10BDC206D20E01219140054A1160EF
:101050007047C206D20E01219140084A11607047C4
:101060001CED00E000E100E084830000000200507D
:10107000000100508C8300008883000080E200E0C3
:1010800010B5684800780A2839D1002065490870F1
:10109000654800F0DDFC654909784900644A505A0A
:1010A000032100F048FA4004040C204600F0C4FC80
:1010B0005E49097849005E4A505A032100F03BFA24
:1010C00084B2204600F0BEFC5AA0FFF768F900F099
:1010D00019FA56490978491CC9B2544A1170084690
:1010E000192100F028FAC8B2504908705248008807
:1010F000002804D050480088401E4F4908804948C5
:101100000078401C4749087010BD10B54BA0FFF790
:1011100046F94FA0FFF743F952A0FFF740F901202D
:1011200000F076FC032000F067FC0122002110464D
:1011300000F050F9C822FF21F531480000F071F9A4
:101140004D4800F073FC00F071F932203A490880F4
:101150004AA0FFF724F94EA0FFF721F959A0FFF7A5
:101160001EF967A0FFF71BF900F078FC00BF3248BA
:1011700000880028FBD100F07BFC00F0C3F90020C0
:1011800000F046FC67A0FFF70AF910BD08B52BA0D8
:10119000FFF705F968A0FFF702F932A0FFF7FFF8A3
:1011A0006A480078002831D1012017230322120257
:1011B00006210090002000F08CFB012000F028FCAC
:1011C000032000F019FCFF22F5320121002000F07D
:1011D00045F9642000F070FCFA2000F073FCFF2059
:1011E000913000F075FC002000F07EFC0120574992
:1011F000087057A0FFF7D3F85A48FFF7D0F85AA065
:10120000FFF7CDF863A0FFF7CAF80AE000F07AFC18
:10121000002000F0FDFB00204C49087068A0FFF79B
:10122000BEF808BD13800000FFFF0000148000001E
:10123000D41B00002A000000108000000A0D0A0DD7
:101240002A2A2A2A2A2A2A2A2A2A2A2A2A2A2A0028
:101250000A0D2A2054494D455230205445535420FC
:101260002A0A0D002A2A2A2A2A2A2A2A2A2A2A2A45
:101270002A2A2A0A0D000000811000000A0D544994
:101280004D45523020737461727473210000000068
:101290000A0D596F752063616E2068656172207454
:1012A000686520736F756E642070726F6475636516
:1012B000642062792050574D30206F722050574D76
:1012C000310000000A0D696620796F752061747421
:1012D00061636820612062757A7A6572206F6E2082
:1012E00070696E732050305F32206F722050305F13
:1012F0003320726573706563746976656C792E004E
:101300000A0D506C6179696E67206D656C6F647948
:101310002E20506C6561736520776169742E2E2EC6
:101320000A0D00000A0D54494D4552302073746F68
:1013300070706564210A0D000A0D2A2054494D453C
:1013400052322054455354202A0A0D0012800000C6
:101350000A0D54494D4552322073746172746564AC
:1013600021000000D81C0000206F6E2070696E7391
:101370002050305F362C2050305F3720616E642063
:1013800050315F3020726573706563746976656C87
:10139000792E0000546F2073746F7020746865207C
:1013A00074696D65722C2063616C6C20746869735C
:1013B000207465737420616761696E2E0A0D0000E8
:1013C0000A0D54494D4552322073746F7070656434
:1013D000210A0D0070B504460D46164643480068C4
:1013E00008218843E9000822114008433F4908606A
:1013F0000846006804218843B100042211400843D4
:101400003A490860084600680221884361000222C8
:101410001140084335490860FE21082000F02FF8EC
:1014200070BD334B58809980DA80704708200121C5
:101430008140304A116000BF70470820012181407F
:101440002C4A8032116000BF704710B52A480068EE
:10145000002802D028480068804710BD70B50646B5
:101460000C461546012000F00DFB304600F016FB3F
:10147000204600F039FB284600F030FB70BD10B567
:10148000002819DA1D4A03071B0F083B9B089B0025
:10149000D2588307DC0EFF23A3409A438B071B0E11
:1014A0008407E40EA3401A43144B0407240F083C9E
:1014B000A408A4001A5118E00E4A03231B02D218F4
:1014C00083089B00D2588307DC0EFF23A3409A4376
:1014D0008B071B0E8407E40EA3401A43054B03241D
:1014E00024021B198408A4001A5110BD00340050B6
:1014F0000034005000E100E0188000001CED00E026
:1015000000BFFEE710B50321012000F0FBF9002425
:1015100000E0641C962CFCD30321012000F000FAAB
:1015200010BD002203098B422CD3030A8B4211D336
:1015300000239C464EE003460B433CD40022430864
:101540008B4231D303098B421CD3030A8B4201D354
:1015500094463FE0C3098B4201D3CB01C01A5241EC
:1015600083098B4201D38B01C01A524143098B423C
:1015700001D34B01C01A524103098B4201D30B0125
:10158000C01A5241C3088B4201D3CB00C01A52414A
:1015900083088B4201D38B00C01A524143088B420F
:1015A00001D34B00C01A5241411A00D201465241A8
:1015B000104670475DE0CA0F00D04942031000D3C7
:1015C0004042534000229C4603098B422DD3030A1C
:1015D0008B4212D3FC22890112BA030A8B420CD32C
:1015E000890192118B4208D3890192118B4204D355
:1015F00089013AD0921100E08909C3098B4201D3D5
:10160000CB01C01A524183098B4201D38B01C01A0E
:10161000524143098B4201D34B01C01A5241030985
:101620008B4201D30B01C01A5241C3088B4201D334
:10163000CB00C01A524183088B4201D38B00C01AE1
:101640005241D9D243088B4201D34B00C01A5241B8
:10165000411A00D20146634652415B10104601D345
:101660004042002B00D54942704763465B1000D3CF
:10167000404201B50020C046C04602BD70477047D9
:101680007047000070B5FF242404C609FF252640DA
:1016900001352E43C209CB090546224023404D4067
:1016A000002A6BD0002B69D0A24267D0A34265D03C
:1016B000002D00DA32460124E405214320430902CB
:1016C0000002090AD21A000A4B0C7F24E31A434C89
:1016D0007C44E35C7D242404121914145B00A218DA
:1016E000884201D3521C00E0400049420C465C4352
:1016F00024115C43DB016415E318040A5C43C50252
:10170000200D0C4644436419250A5D432303EC0C69
:101710000D46654300030019EB184C42A34201D368
:101720005B18401CD4052018002B07D05B00C9189B
:1017300004D3401C002901D1400840003F21890406
:101740008A4209D3002A08DC1106090F04D00321BC
:1017500049074018C00FC00770BD012241001206A2
:1017600089187F2252069142F6D205214907C842C4
:1017700001D5901070BDFF20C00570BD002D00DAAE
:101780003246174EA24207D2A34205D21802000EDB
:1017900017D0E80FC00770BDFF2443002406A34202
:1017A00016D84900A14213D8A34201D1A1420FD0BB
:1017B000A14201D1002101E041004908D0050843C0
:1017C00070BD1002000E03D0FF200243D00570BD93
:1017D000304670BD48404140484053E73405000062
:1017E0000000C07F01460002CA1504D00123DB07B8
:1017F0001843002A09DB9E239A1A01D4D04070476F
:10180000FF2248001206904201D900207047C817F5
:10181000C04370471F22030C02D10F2200041CD0CA
:10182000030E01D10002083A030F01D10001121F7B
:10183000830F01D18000921E002801DB4000521E60
:10184000D2055118021251181922904004D3491C94
:10185000002801D14908490008467047C10FC9074F
:1018600000D04042012292071143D3E701218907AA
:10187000D0E7754600F022F8AE46050069465346AB
:10188000C008C000854618B020B5FEF767FC60BCF4
:1018900000274908B6460026C0C5C0C5C0C5C0C59A
:1018A000C0C5C0C5C0C5C0C5403D49008D467047D4
:1018B0000446C046C0462046FEF73FFC004870473D
:1018C0001C80000001491820ABBEFEE72600020084
:1018D0007047FFB581B004460D4616460A9F002F9B
:1018E00004D02946204600F00DF803E029462046A2
:1018F00000F016F8324629462046049B00F01EF8F8
:1019000005B0F0BD30B5032800D104204401034DDB
:1019100063199A1C01248C40148030BD00300050A3
:1019200030B5032800D104204401034D63191A1D6A
:1019300001248C40148030BD00300050F0B50328E5
:1019400000D104204601044FF5194E00AF1DF419D3
:1019500016461E432680F0BD0030005000B50A48F0
:10196000007802218843084908700848008802214D
:101970008843801C054908800846008840084000CC
:101980000880FFF758FA00BD848300000002005071
:1019900010B504461348008802218843801C114971
:1019A00008800920FFF755FB0E4800887F21C900F9
:1019B0008843E10008430B49088008460088400836
:1019C0004000401C088001210920FFF7FDF906486E
:1019D000007802218843801C034908700920FFF722
:1019E00031FB10BD00020050848300000148408894
:1019F00000B2704700020050044909688908890054
:101A00008207920F1143014A116070470400005091
:101A10000549096808229143C20008231A4011436E
:101A2000014A11607047000004000050014908603D
:101A3000704700001880000001498880704700004E
:101A4000003400500149C880704700000034005045
:101A50000149488070470000003400500348006886
:101A600040084000401C01490860704700340050A5
:101A700003480068400840000149086070470000C2
:101A8000003400500449096849084900C207D20FD0
:101A90001143014A1160704710340050054909682C
:101AA00004229143820004231A401143014A116029
:101AB0007047000010340050014908817047000051
:101AC0000034005001494881704700000034005044
:101AD0000149888170470000003400500149C881E5
:101AE0007047000000340050054909680222914304
:101AF000420002231A401143014A1160704700005E
:101B00001034005010B50020FFF7BCFF10BD0000DE
:101B100001490860704700008883000070B54200EA
:101B200064414B005C41120E39D01B0E38D0FF2AA5
:101B30003CD0FF2B3AD040024902400A490A060035
:101B400045184E43000A090AD2184843ED017F3A6E
:101B50000104731A4019190C4318990F04D001217C
:101B60005B0849075B1A521CD80904D3401CF503D3
:101B700001D19D0607D0FF2A08D2D50506D0E4077B
:101B80002043401970BD0125A843F4E7002A01DC79
:101B9000E00770BD2402FF202043C00570BD1B0E6E
:101BA000FF2A03D0FF2B01D0E00770BDFF264500C0
:101BB0003606B54206D84D00B54203D8D218FF2AE2
:101BC00000D0E7E7004870BD0000C07F01000000C2
:101BD000010001001604DB03FF02A40348017003A7
:101BE0003E0361020F03DF03E302DD03BA02C80113
:101BF0009302FF006E02FE004B022A026D010B02EF
:101C0000FB00ED01D201B80181828384858687883B
:101C1000898B8C8D8E8F919293959697999A9C9D96
:101C20009FA0A2A3A5A7A8AAACAEB0B2B3B5B7B9FE
:101C3000BCBEC0C2C5C7C9CCCED1D4D7D9DCDFE2C7
:101C4000E6E9ECF0F3F7FAFE202032292053656C28
:101C500065637420746865206173736F6369617470
:101C6000656420686172647761726520636F6E6677
:101C7000696775726174696F6E20696E202770657F
:101C8000726970685F73657475702E68272E0A0D0F
:101C90000000000020203129204D616B6520737504
:101CA000726520796F75206861766520636F6E6E4E
:101CB00065637465642074686520617070726F700C
:101CC0007269617465207065726970686572616CB3
:101CD0002873292E0A0D00000A0D596F75206361C3
:101CE0006E20686561722074686520736F756E641C
:101CF0002070726F64756365642062792050574D5F
:101D0000322C332C3420696620796F75206174740D
:101D100061636820612062757A7A65720000000054
:101D2000401D0000008000001C000000E4000000D6
:101D30005C1D00001C800000740300000001000016
:101D400000E1F50500E1F5050000000000000000DD
:0C1D500000000000000000000000000087
:04000005000000A156
:00000001FF
