:020000042000DA
:1000000000980020A9040020B1040020C9040020A9
:1000100000000000000000000000000000000000E0
:10002000000000000000000000000000E1040020CB
:100030000000000000000000F9040020FB04002084
:1000400049280020053103000D310300153103005C
:10005000F72800208D310300412900204929002084
:10006000FD040020C712002061290020AD310300EB
:1000700057810200FD0400204B1B02004B1B0200B5
:100080004B1B02004B1B02004B1B02004B1B0200D0
:100090004B1B02004B1B0200FD0400204B1B020007
:020000042000DA
:100160003200000019060020B51000205D37002085
:10017000000000000000000063800200BD8002005B
:100180000F0F0020FB800200198102003581020060
:100190005D810200C9280020FF050020DF0E00203D
:1001A000F70E002000000000000000003F000000EB
:1001B000F48B002000040000740B080048010000CC
:1001C0006807080000040000C80C080020050000B3
:1001D000000000002000000048000000580000005F
:1001E0006800000004010000160100002801000062
:1001F0002E010000202A00008E2E000001000000C9
:10020000881300003F110020E9600200FD93020006
:10021000031E002019280300A574020051240020A9
:1002200003000000D5200200793700200400000000
:10023000D74902000F490200831D020063910200AA
:10024000B7910200BF910200078202007182020092
:1002500000660020AD830200938402004185020005
:1002600015860200378602005F860200758602004E
:10027000F9870200258902005D8A0200D38C020002
:10028000098D02000F900200438D0200278E0200AC
:10029000F98E0200478F0200998F0200D58F02006D
:1002A00049510200775102002F5202001000000055
:1002B00020030000803E000000000000000000005D
:020000042000DA
:1002C000504600030003983A6400F401B80B000C98
:1002D000B80B120030003000CD009A01120024004B
:1002E00030006400B0001800280012001200D0078F
:1002F0000000FFFF00000000000000000000000000
:100300001F000002444131343538302D30310000B7
:1003100000000000000000000000000000000000DD
:0403200000000000D9
:020000042000DA
:10034000FFFF010000C201000000000000000000EB
:100350000000F4010100011B0A0B1AFFD200021574
:10036000585CDE931B0142CC9A1325009BEDC65EC0
:1003700000000000C5000000000009FF00605257A7
:100380002D424C450000000000000000000000006D
:100390000000000000000000000044413134353806
:1003A000302D30310000000000000000000000008F
:1003B000000000000000000000000000000000003D
:1003C000000000000000000000000000000000002D
:1003D0000000000000000000011100CAEA80D00700
:0403E00006D06432AD
:020000042000DA
:100440000348854605F00AFD00480047C720020022
:100450000098002010B5114988683E2290432E3044
:1004600088600F4906200880FF200E49013008608F
:100470000021052000070180028A0F231B021A4376
:1004800002820122D204032308461B038418216040
:10049000001D9842FADB62B610BD00000033005028
:1004A0000034005080E100E01548804715480047BF
:1004B00004207146084203D0EFF30980124908472F
:1004C000EFF308801049084704207146084203D022
:1004D000EFF309800D490847EFF308800B490847FF
:1004E00004207146084203D0EFF309800849084709
:1004F000EFF3088006490847FEE7FEE7FEE7000045
:100500005504002041040020210A00201505002088
:100510008705002005221207518A80231943518242
:10052000114903680B6043684B6083688B60C36844
:10053000CB6003690B6143694B6183698B61C0695F
:10054000C8610A48836A0B62C36A4B62036B8B62A1
:10055000C36BCB62436B0B63806B4863908A8006EE
:1005600001D500BE7047FEE70018080000ED00E06E
:1005700002890889CD49101A80B2884201D9012028
:1005800070470020704781692039897F082904D28B
:10059000C74A8900515881617047FEE7C648C5497E
:1005A0000161C6494161C6498161C649C161C64907
:1005B0000162C6494162C6498162C649C162C649F3
:1005C0000163C6494163C6498163C649C163C449E1
:1005D000B9485C3140300160C3494160C349816022
:1005E000C349C1600120C349C0060860C249CA6945
:1005F0001202120ACA61BF4980390860704710B5FB
:10060000BE490020086000F01CFC01208007016B3F
:1006100049004908016310BD1CB5B94801240470A4
:10062000B849C8200880B74800214180B64E082547
:10063000758005F025FC05F073FF00F01FFBB34843
:1006400001780170B24801780170012005F01EFCAC
:100650000D202102800105F01FFC02F00DF800F0D2
:1006600093FC00F037FBAB4F3889400940013881DB
:1006700038890F2189028843711440183881A648AF
:1006800078822620B8820720F882A44838837C83A9
:1006900078881E21884314307880042000F0FFF809
:1006A000072000F0FCF80A2000F0F9F8062000F01E
:1006B000F6F80B2000F0F3F8012000F0F0F802202B
:1006C00000F0EDF8002000F0EAF89548006805F029
:1006D000E9FBA007026881150A43026000F03DF9BA
:1006E00090480068AA2805D1142000F068FB142067
:1006F00000F073FB03F0EEFDFFF781FFA22005245D
:100700002407E08283484188E0229143A031418060
:10071000854F386F007800280BD0002005F0C8FB0B
:1007200005F0CCFB022806D005F0C8FB012802D05A
:1007300009E00120F2E73580A08A800603D5608AAF
:100740008021084360826F49C82008807580022696
:1007500004252089000622D501208007006B0004B3
:100760001DD405F0B1FBC00719D1042005F0B2FB80
:10077000019005F0B5FB0198002810D000200190F1
:1007800068480068AA2802D1142000F026FB042142
:1007900001A805F0ABFB002801D000F067FB72B6A2
:1007A00060480068AA2801D100F04BFB01F08CFFE3
:1007B00069460870042806D002280CD003280AD005
:1007C000012866D066E059480078012802D003204D
:1007D000087000E00E70208A28432082F869012802
:1007E000087811D903284BD105F086FB002847D0A3
:1007F00005F088FB002843D0032005F089FB002882
:100800003ED04B48067008E0032839D105F080FB44
:10081000002835D04649012008703748016929432E
:100820000161618A202291436182218A31432182C0
:10083000694609780229618A24D0294361827F218F
:100840002288890180231A4322800022521CD2B2BE
:100850000A2AFBD3628A10231A436282354A491E50
:10086000516121888022914321802A494A88FF23AF
:1008700001339A434A8030BF0169A943016109E00D
:100880006846BFE729436182618A102291436182F1
:10089000EBE730BF62B6C8201A49088059E7C106A5
:1008A000C90E012088402449086070473075000057
:1008B000E0650020942703000084004062B600DF5A
:1008C00028A30200704701DF1CCA0200F8BD02DF46
:1008D00040CB0200F5E703DF84D4020004DF89B0D7
:1008E000BC330200F8BD05DFF8BD06DFEC0C0300E9
:1008F00070BD07DF80E100E000ED00E08C03080040
:10090000008000200031005000330050000008003B
:10091000202A0800200000504E02000077770000D7
:10092000049000200C800020E00100205402080008
:10093000C40608000080004080E200E0704700002C
:1009400033480178002902D0802141707047314935
:10095000002008703049C87070472D480178002980
:1009600002D08121417070472A49012008702A492C
:10097000C870704726480178002902D08221417052
:10098000704724490220087023490120C87070472D
:100990001F488178002904D0491E0906090E81707C
:1009A00017D142780021002A04D09207920F0270DA
:1009B000417004E00278002A01D0521E0270120633
:1009C000120E017005D0012A02D0022A01D1D1E70E
:1009D000C3E7704710B50E4CA078401CA07020787B
:1009E000002805D105F06AFA421CFFF7A9FF227022
:1009F00010BD07490120C870704705490020C87024
:100A000070470348C078704704480078704700007A
:100A10000180002054020800C60608002B80002038
:100A200005221207118A042319431182118A022315
:100A3000194311821189402319431181174B012158
:100A40001960174B08211980518A8023194351825C
:100A5000144903680B6143684B6183688B61C36809
:100A6000CB6103690B6243694B6283698B62C06926
:100A7000C8620D48836A0B63C36A4B63036B8B6365
:100A8000C36BCB63436B074940310B60806B48609D
:100A9000908A800601D500BE7047FEE780E200E044
:100AA000003300504018080000ED00E070B58448A5
:100AB0000022C16AD243002901D0114600E0012181
:100AC000CB17CC0B5B0423434C04C1627D490D68FA
:100AD0004E682C4333430C604B60C369002B01D03C
:100AE000144600E00124E317650EDB012B43C461CB
:100AF0000D68E4014E682C4333430C604B60836AFD
:100B0000002B01D0144600E00124E317250C1B0440
:100B10002B4384620D6824044E682C4333430C60DD
:100B20004B60036B002B01D0144600E00124E31757
:100B3000A50B9B042B4304630D68A4044E682C434F
:100B400033430C604B60436B002B01D0144600E034
:100B50000124E317650BDB042B4344630D68E404B5
:100B60004E682C4333430C604B600368002B01D06C
:100B7000134600E0012303600D68DC174E682B4329
:100B800034430B604C608369002B01D0144600E0B5
:100B90000124E317A50E9B012B4384610D68A4017A
:100BA0004E682C4333430C604B604369002B01D0EB
:100BB000144600E00124E317E50E5B012B4344617A
:100BC0000D6864014E682C4333430C604B60C3686E
:100BD000002B00D10122C260D017530FC000184370
:100BE0000C68D2004B68224318430A60486070BD0D
:100BF000F8B50024FF220121234601320846009463
:100C000005F0D8FB0326002336023246072118469A
:100C1000009405F0CFFB00233246194601200094D2
:100C200005F0C8FB0125082332460321002000956A
:100C300005F0C0FB0021072332460846009405F06A
:100C4000B9FB0623324619460020009405F0B2FB9A
:100C50000523002219461046009405F0ABFB002343
:100C6000324602210120009505F0A4FB0023324604
:100C700003210120009505F09DFBF8BD10B505246A
:100C80002407208A022188432082A08A0007FCD5FD
:100C90000D484188FF22013211434180FFF77EFC5D
:100CA000FFF7A6FF0721002003F0BAFE03F0E2FFE2
:100CB00004F082FF608A20210843608210BD00009A
:100CC0002890002020900020200000509E49AA205B
:100CD0004860704770B505210907088930229043A4
:100CE00008810889802210430881088980088000D3
:100CF000401C088108890823184308819348048808
:100D0000144304804C8A9C434C820D894024254323
:100D10000D810D8A0426B5430D828D8AAD07FCD561
:100D2000894EAA2575608588F026B543B035858043
:100D3000858803263602B543FF35013585808588D1
:100D40002D092D01858085880126B60235438580D1
:100D50008588760035438580858876003543858093
:100D60004D8A9D434D820388934303800A89A243A1
:100D70000A814089800503D5744905206031888047
:100D80000120800701688215914301607048016865
:100D90003F22520291434214891801600168020304
:100DA0001143016070BD03216A4809028181082254
:100DB00042800021491C9629FCD3828070476649F5
:100DC00048800888032210430880088804221043C2
:100DD00008805D490120087070477CB55A4C217825
:100DE00000292DD05C490A885207FCD4CA88009299
:100DF000898801911104019A891800915749484343
:100E0000009905F08BF80090002020700098A060F9
:100E1000009804F096FF05462946514804F03CFF2F
:100E20000A2104F077FF04F093FFE060284604F005
:100E3000A3FF4C4A4C4B05F077F804F0B1FF20615A
:100E40007CBD10B540484168AA290CD07C20474998
:100E5000081884B24649204605F060F8081980B2A7
:100E600005F068F810BDC068000AF0E710B5414908
:100E70000120C863C86B0028FCD101208007C1692C
:100E80003D480268914201D20022026019238A1A69
:100E9000DB019A4212D3016005F052F8374A1188FB
:100EA000884201D9411A00E0091A89B2182905D3EC
:100EB0001080012005F04AF805F04EF810BD08B585
:100EC0002149896848432E4905F028F8009008BD5B
:100ED00008B51D49C9684843800A009008BD08B597
:100EE00019494968002903D0FFF7E9FF009008BDC0
:100EF00005F038F8FAE708B513494968002903D026
:100F0000FFF7E6FF009008BD05F032F8FAE708B5F4
:100F10001C4901204A695206D20F13D04A69920631
:100F2000D20F0FD000220A610092FF225F32009B95
:100F30005B1C00939342FAD34969C907C90F02D0D9
:100F400005F01CF8002008BD08800020200000509B
:100F50000002004020300050001600500024F40031
:100F6000002474497B14AE47E17A443F011200002B
:100F700071020000C00000407C04080078040800F2
:100F800040420F000010005030B59C4A9C49D005EB
:100F9000048880231C4304809A4C65892D0701D462
:100FA000521EFAD2984C01222260984C0A88228064
:100FB000974A4988118001889943018030BD0020FB
:100FC00070477047704770470020704701218907BC
:100FD000086B0722104308637047704710B58E49AD
:100FE0008C4808608D494C2008808C4B8C4A203BF3
:100FF0001A828D498B4848808D488C4901808B49E5
:101000001931418022214181812189000182894950
:101010004182894901838749113141838449874845
:101020002031888041218648090181808549C1801D
:10103000844C1034C48101824182891C8182611FE9
:10104000C182FF21463101837F4941837F49592075
:1010500008807E487E4C20300480432444807D4CB0
:101060004C82D5218180FF21D33101817A49418190
:101070007A4981817B497A48088068487A49603892
:101080004180C18810242143C18071490A390181FE
:10109000624C7649403C61805A82082141815C481B
:1010A0006A49008840390882584871490088088098
:1010B00010BD704700B58BB06E4A42626E4A8262C4
:1010C0006E4A42616E4AC2626E4A02606E4A0262B3
:1010D0006E4A42606E4AC2614F4A4E48002110601B
:1010E0004D484038026B03129A430263426B1F2340
:1010F0001B049A4303231B04D21842636548026809
:10110000C3129A430260026803139A43026068465E
:101110004154491CC9B22829FAD3014628225E4805
:1011200004F032FFFFF75AFF04F00AFF5B49088022
:10113000002004F00BFF04F00FFF0BB000BD10B552
:10114000354A0F2133480902106033484038426B5A
:101150001F231B049A4303231B04D2184263000677
:101160000268D208D20002600520000702899208B6
:101170009200521C0281028908231A430281028ACA
:101180000A4302821F4801894909490101810189F5
:101190000F2292029143421489180181294920317A
:1011A0004182262181820721C1822D49DC390183B8
:1011B0000121418341881E229143143141803849E5
:1011C0000968002907D14189890504D50188782259
:1011D000914308310180FFF701FF3248006F00782A
:1011E000002808D0304800880C496039C8800020A9
:1011F00004F05EFE10BD0120FAE70000A0860100A9
:10120000087F0400200000500080004056020800C3
:101210004A0308004C05540780000040602C005031
:101220007F7F0000AC290000002200500909000067
:10123000002400502204000030D00000EE11000015
:10124000002500502E0200004420000040280050DD
:101250000D95000002420000E4DC00001092000046
:1012600053780000002A00508B1000009DD500002C
:1012700000260050BF0F0020C30F0020C90F002020
:10128000CD0F0020C50F0020DB0F0020C70F00206E
:10129000B31000200002004020000800780408007D
:1012A0000C800020E0010020520408003B48007838
:1012B000002802D00020C043704701203849400276
:1012C0000860002070470520000701883022914304
:1012D000018001888908890001808088C0060BD5BB
:1012E00030480121818001888022914301802B4870
:1012F0004068002800D000477047F0B50524240757
:10130000A58810263543A580264C00252581D2B21C
:1013100062802A46D7000546FD40EEB255002D19E1
:101320006E810E46FE40F6B26E82521C042AF1DB3C
:10133000E28903252D020004800FAA430002024324
:10134000E281E08A0904890FA84309020843E08288
:101350000120A080144A410211609A06920E803248
:101360002280124B1A68FF242402A24384032243E2
:101370001A600A4A137803430948137080380160E1
:10138000F0BD06480178490849000170054801216F
:101390008180018880229143018087E71C800020A2
:1013A00080E100E00001005080E200E008E400E09D
:1013B00010B5424908804249884201D9642010BDD5
:1013C0004049411878290ED863210901401A04F0D8
:1013D000ADFC3D4904F060FC3C4904F020FC04F005
:1013E000B7FC1C3013E03749394CE0314118DF2994
:1013F0000FD855210901401A04F098FC214604F049
:101400004BFC344904F00BFC04F0A2FC001DC0B2FC
:1014100010BD31494118DF290DD847210901401A73
:1014200004F084FC214604F037FC022104F072FC35
:1014300004F08EFCEBE7002010BD274910B54942AF
:10144000884209D349424018642148434721C900D2
:1014500004F0A0FDC0B210BD002010BD70B5012188
:10146000890205464E00304600F03AF8072000F0A9
:1014700044F800F050F804460021304600F030F8FF
:10148000072000F03AF800F046F8001984B200F0A6
:101490003EF8124920090A780001002A01D1FF22F2
:1014A0000A70012D03D0022D04D0002070BDFFF77B
:1014B0007FFF70BDFFF7C1FF70BD0000C890002026
:1014C000A9060000CFF9FFFF0000F24200009042A1
:1014D000000060430000C0418FFBFFFF248000201C
:1014E00008430121890302460A4312490A80124A2D
:1014F000104308800B20488070470E490A880F234C
:101500009B0100079A43800D02430A8070470949F6
:1015100000200880704707480849028802231A43C0
:101520000280491E02D302889207FAD40021018169
:10153000408970470015005001400000A08601005E
:10154000FC4A03C2704710B5012000F084FA052060
:10155000000200F0C1FAC0B210BD70B50024F64D13
:10156000FFF7F1FFC00704D0641CAC42F8D30020A1
:10157000C04370BD70B5FFF7F0FF002815D100F033
:101580006AFAED4E0025062000F0A6FA0024FFF7C7
:10159000DAFFC10703D1800701D5002070BD641CAC
:1015A000B442F4D36D1C322DEDD30020C04370BD86
:1015B00070B5FFF7D2FF002815D100F04CFADE4ECF
:1015C0000025502000F088FA0024FFF7BCFFC10777
:1015D00003D1800701D5002070BD641CB442F4D350
:1015E0006D1C322DEDD30020C04370BD70B5FFF7E8
:1015F000B4FF002811D100F02EFACF4E00250420B0
:1016000000F06AFA0024FFF79EFF800707D0641CF1
:10161000B442F8D36D1C322DF1D30020C04370BD0D
:1016200010B50446FFF799FF002808D1012000F00B
:1016300012FAE01DF93000F04FFAFFF78EFF10BDEF
:1016400070B50646BB480D4600685119814201D964
:10165000441B00E01446FFF780FF00281AD1022047
:1016600000F0F9F900F0A4F903212846090608431F
:1016700000F01BFA002000F0EEF9002505E0002044
:1016800000F013FA30706D1C761CA542F7D300F001
:1016900096F9204670BD70B50546A6480E464068CE
:1016A0001446824200D984B2FFF757FF00281ED1AA
:1016B000FFF760FF00281AD1022000F0CCF900F0FB
:1016C00077F9012130464906084300F0EEF9002081
:1016D00000F0C1F905E028786D1C00F0E6F9641E01
:1016E000A4B2002CF7D100F06AF9FFF736FF70BD05
:1016F00070B50D460446FFF73DFF002802D00020DC
:10170000C04370BD022000F0A6F92806204300F077
:10171000E3F9FFF722FF70BD10B5FFF72BFF00289C
:1017200002D00020C04310BD002000F094F9C72073
:1017300000F0D2F9FFF711FF40B210BD0020C04306
:10174000704710B5FFF709FF002812D1012000F003
:1017500082F900F02DF90920000300F0A6F900201D
:1017600000F0A3F9002000F0A0F9044600F027F9EA
:1017700020B210BD70B5FFF7F0FE002801D0C117F0
:1017800070BD002000F067F900F012F94B2000F066
:101790008CF9022000F05FF9002000F086F90020AB
:1017A00000F083F900250446284600F07EF906463D
:1017B0002E4300F004F93046214670BD70B5FFF7A6
:1017C000CCFE002817D100F046F900F0F1F89F2078
:1017D00000F06BF9002000F068F90504002000F02B
:1017E00064F904022C43002000F05FF92043054611
:1017F00000F0E5F8284670BDF7B582B04D4F0E46B3
:101800000091796814460D46304604F087FB401C71
:101810006843451E002000F01EF93868801BA04276
:1018200000D204462646002719E000988019A842F5
:1018300002D900982E1A761C0298B2B2C0190099EB
:10184000FFF729FF002803D00020C04305B0F0BDFA
:10185000681C00903748BF1940682D18E61BA74246
:10186000E3D33846F2E710B5FFF777FE002805D13D
:1018700000F0F1F8B92000F02FF9002010BD10B5EC
:10188000002000F0E8F8AB2000F026F9002010BDA1
:1018900010B50446FFF76EFE002802D00020C043BA
:1018A00010BDFFF750FED3210840A1002C221140AB
:1018B0000843FFF7B5FE10BD10B5FFF742FF1F4903
:1018C00080B2401804D0012802D00620C04310BDC9
:1018D0000020FFF7DDFFFFF71FFF10BD70B50546C5
:1018E00014480E4640681446824200D984B2FFF77D
:1018F00034FE00281DD1FFF73DFE002819D102203B
:1019000000F0A9F800F054F80121304649060843D8
:1019100000F0CBF8002000F09EF804E0284600F02C
:10192000C4F8641EA4B2002CF8D100F048F8FFF708
:1019300014FE70BDCC900020400D0300F010FFFF9E
:10194000F7B582B0194F0E460091796814460D46DE
:10195000304604F0E3FA401C6843451E002000F0C6
:101960007AF83868801BA04200D204462646002739
:1019700017E000988019A84202D900982E1A761C08
:10198000B2B200990298FFF7A9FF002802D0002008
:10199000C0435BE7681C00900448BF1940682D18DD
:1019A000E61BA742E5D3384650E70000CC90002064
:1019B00010B54F484178007804F06CFD10BD10B5AB
:1019C0004B484178007804F043FD10BDF8B50E4651
:1019D000154647490278079F0A7040781C464870B0
:1019E000FFF7EDFF0520000781880122D202114395
:1019F0008180404801884908490001800188FF2210
:101A000081329143F20111430180018840229143C8
:101A1000AA0111430180018804229143A2001143CD
:101A20000180018802229143069A520011430180ED
:101A30000188012292039143BA0311430180018876
:101A400018229143089AD200114301800188012293
:101A500011430180F8BD27490A88520852000A80C4
:101A60000A88FF2381339A43C00102430A80088811
:101A7000012210430880704710B51E4801884908AC
:101A8000490001800520000781880122D20291438C
:101A9000818017484178007804F0DAFC10BD1548C1
:101AA0000188490849000180704710B51149002399
:101AB0000A88D205920F012A01D9040C8C80488033
:101AC00008888004FCD50120C880012A01D98888B3
:101AD00003044888C01810BD10B50446FFF768FF1E
:101AE0002046FFF7E2FF0446FFF769FF204610BDDE
:101AF000D490002000120050F0B59B4D2B700523B0
:101B00001B079C88202634439C80984C0023A3818B
:101B1000964B6126603B1E801E880627BE43490007
:101B20000E431E8019881026B143120111431980FB
:101B30008105890D99800121A181218A8906FCD422
:101B40006870F0BD894900208881052000078188E0
:101B5000202291438180704770B5844B834C834D24
:101B60000822603B81482034203D1A82018A4907BF
:101B7000FCD5018A8906FCD42188AE8AC907F4D134
:101B800070BD30B50104784C0B0E7849227860396D
:101B9000012A02D0022A0ED110E0744A0025958154
:101BA000C5036478ED0F25438D8001249481148A48
:101BB000A406FCD40B82C0B2088230BD0202120E11
:101BC0000A82F7E710B50446FFF7C6FF2046FFF785
:101BD000D8FF6648018A8907FCD5FF226349013294
:101BE00060390A82028A5207FCD5028B002AFCD097
:101BF000088AC0B210BDF0B5044615460846FFF786
:101C0000C0FF5A4900226039FF235848013304E0DD
:101C1000068AB607FCD50B82521CAA42F8D3EFF312
:101C20001083012282F31088002209E0068B002E27
:101C3000FCD00E8A27683E702668761C521C2660EF
:101C4000AA42F3D3002B03D0012080F31088F0BD0B
:101C50000020FAE7F7B50E46002A09D0012040041B
:101C6000841B944200D314462546FFF775FF08E015
:101C70000020FEBD202231466846FFF7BCFF203C15
:101C80002036202CF6D2002C04D02246314668465D
:101C9000FFF7B1FF2846FEBD30B50C460546FFF7FD
:101CA0005BFF2846FFF76DFF3048018A8907FCD5A6
:101CB0002E4960390C82018A4907FCD5018A8906C0
:101CC000FCD430BDF0B506468C46084601210025FF
:101CD00049048C4529D2C0B249120C1AA24200D242
:101CE0001446FFF739FFEFF31087012080F31088C7
:101CF0006046FFF746FF1D491C486039028A92077B
:101D0000FCD532780A82641E6D1CA4B2761CADB27A
:101D1000002CF3D1002F0AD0012181F31088018A11
:101D20004907FCD5018A8906FCD42846F0BD00216C
:101D3000F3E7F0B50646012040040D46814201D389
:101D40000020F0BD401B904200D2024614460027FE
:101D500006E0A2B2E919F019FFF7B4FF3F18241A00
:101D6000002CF6D13846F0BDD6900020601300500C
:101D700070B5EFF31085012080F31088264804F039
:101D80000FF90446002D1DD0012080F31088002C8F
:101D900023D020462038C08B204988421DD161893C
:101DA000208904F003F905000ED021461031A389E3
:101DB00062892089A847002806D001280DD0022872
:101DC0000BD105E00020E0E7204604F0F5F804E040
:101DD000114821460C3004F0F5F8EFF3108401208F
:101DE00080F310880C480068002802D1012004F01C
:101DF000EFF8002C03D0012080F3108870BD002084
:101E0000FAE710B5BC21064804F0E8F805490120BE
:101E100004F0EAF810BD0000A805080038830000AF
:101E200004060800711D0020F8B50D460646810025
:101E30002B48EA884458521C20686B89018F294F2F
:101E400051430091014640314A89C989511A8AB2E9
:101E5000991A89B2B94214D29A4212D0294604F092
:101E6000C9F82D892049009804F058F82818801CDA
:101E70004034E0823002401C80B2042104F0C0F8FB
:101E8000F8BD2821304604F0C1F8F8BDF8B5054684
:101E9000870013480C46C059C9880068114E024695
:101EA00040325389D2899A1A92B28B1A9BB2B342AA
:101EB00011D20B4E8A420ED004F0AEF8F059052232
:101EC000611C5F3004F060F82802401C80B20521DC
:101ED00004F096F8F8BD2821284604F097F8F8BDDC
:101EE0004C030800FF7F00001027000070B5164665
:101EF0000D46104604F096F8002869D0340A3046A2
:101F000004F090F8012812D0A87A1E2811D0294692
:101F10000A310E2845D019DC801E030004F088F831
:101F20000B255829582D58315839583D5800022052
:101F300070BD3146274804F081F80021204604F0A6
:101F400083F80221304604F05BF841E018283CD0C9
:101F500006DC102819D012282BD0162838D130E0F2
:101F6000522822D0D22833D127E0204604F072F83C
:101F70002EE0204604F074F82AE0204604F076F8BB
:101F800026E0204604F078F822E0204604F07AF8B3
:101F90001EE0204604F07CF81AE0204604F07EF8AB
:101FA00016E0204604F080F812E0204604F082F8A3
:101FB0000EE0204604F084F80AE0204604F086F89B
:101FC00006E0204604F088F802E0204604F08AF893
:101FD000002070BD01280000F3B581B001980C46C7
:101FE0000102CA1D0E310223344804F081F8047046
:101FF00001990546022732488E00002C06D0042C99
:1020000016D0062C10D0072C3FD108E081590522AC
:102010004968897C114069708059C77335E008466A
:1020200004F06CF8687030E080590F21C1732CE027
:10203000044680594068417C012902D1007E012874
:102040000FD0019804F060F801210028A0590BD0AE
:102050004268D07D00281CD001281AD004280DD059
:102060000FE0002068700DE04068C27D022A01D0B8
:10207000042A06D1007C02280BD102E0107C022841
:1020800007D06F70A1590320C873284604F042F8A6
:10209000FEBD6970F6E701460A780120042A01D9DD
:1020A000002070474A78002A01D0012AF8D10A7925
:1020B000082AF5D849790829F2D87047021C00008F
:1020C00028050800FFB589B00D4600206946059037
:1020D00008720B98000A009004F016F807460B9857
:1020E00003F0A0FF00287DD00B982978000A840017
:1020F000764E01295ED0042904D0062943D0072951
:1021000063D120E0687800281BD030591022406845
:10211000A91C03F039FF002F06D03159C87B0328D2
:1021200007D0042808D050E03059C07B032803D0E2
:102130004BE00B20C87348E00521009803F0F0FF46
:1021400043E00120B6E03059C07B0E283DD1009815
:1021500003F0D4FF002103E02A18401C9170C0B2A4
:102160001028F9D3688A69460883294606A80822F8
:102170001431023003F008FF06ABAA1C3946009860
:1021800003F0D4FF21E03059C07B0F281DD1AA1CD9
:102190000A21009803F0D0FF002F04D039460098A0
:1021A00003F0D0FF11E000231A463946009803F0EF
:1021B000CFFF0AE0012F08D10B9803F033FF01286D
:1021C0001CD0002801D0022005906846007A002823
:1021D00011D002AA0521009803F0AEFF6846027AEA
:1021E000602000E007E0024368460272012339469E
:1021F000009803F0ADFF05980DB0F0BD3059C07BDD
:102200000228E2D16878002851D002210B9803F00F
:10221000F7FE305907224068A91C173003F0B4FEBE
:10222000E878002804D130594068407C01283AD031
:10223000009803F093FF002837D0297A009803F024
:1022400093FF002833D0009803F094FF01210098F9
:1022500003F096FF00282CD030594068417E0029B9
:102260002BD0042929D0C17E027D1140C17630597E
:102270004068017F427D114001776846007A00285E
:10228000A7D13059022142680098173203F054FF59
:10229000305941684031897B002913D004210098CE
:1022A000FFF79AFE91E7022004E0062002E00820F2
:1022B00000E00320694608728BE70021C17630599F
:1022C0004068D9E70B21C1737FE7000028050800AB
:1022D00070B50446007800250D2801D00A2200E0E0
:1022E00002225A494B7A002B06D00D2804D0637C79
:1022F000032B01D0432551E0097A8A4339D10D28B7
:1023000009D00E2802D00F2803D134E0607C0328C6
:1023100004D3402542E0607C0328FAD8A07C04283E
:10232000F7D20A2908D0607C012822D0022820D0C8
:102330006078032809D811E003F028FF012806D1AE
:102340006078032803D0002801D0492526E003F057
:102350001DFF002802D160780228F6D83020035DE6
:1023600022462046E17C3132143000F019F805464F
:1023700014E0422512E003F009FF012807D160783C
:10238000052804D1A01D03F007FF0028DDD003F0CD
:10239000FDFE002802D160780228D6D8284670BDFC
:1023A000FFB5002086B001216A46117004460591F0
:1023B0000021002C06D0089D099A1F239A4234D987
:1023C000402032E01C23069D079AF7E76B185E78E1
:1023D000330003F02DFE1D261010101010101010E9
:1023E00010262626262626262626262626261010CF
:1023F000101010102600059B03E06F46FF5CB742EB
:1024000004D05B1E5BB2002BF7DA03E0002B01DB8C
:102410004A2006E0059B6F46FE54059B5B1CDBB221
:1024200005936B5C491C5918C9B2914201D200282E
:10243000CCD0914202D04A200AB0F0BD641CE4B274
:10244000022CF9D20028B3D0F6E700009805080066
:10245000F8B50C4695491646096801250027022261
:102460008B1C312873D012DC0C2874D008DC0128B6
:1024700021D0022840D007284FD00B2869D156E040
:1024800010287FD0112876D01228F7D18EE00123B2
:10249000412871D008DC32286FD035286ED036281C
:1024A0006DD04028EAD1B3E0422869D0432868D0F3
:1024B0004428E3D1D1E006227D497E4803F072FE34
:1024C000002808D006227B49304603F05DFD062037
:1024D00020700020F8BD754801680878C00738D022
:1024E0002078062801D22770C4E0062230469831B1
:1024F00003F04AFD06200EE00A786C48920728D5C2
:1025000022783E2AEFD305464A7E30465A3103F000
:102510003BFD2868407E2070A9E00878400718D568
:1025200020780228DFD3887C3070587C7AE00A78E3
:102530005E4812070DD52278202AD4D30546CA7DDD
:1025400030461A3103F020FD2868C07DE3E736E00D
:1025500001E079E016E00A785448D20674D5227872
:10256000202AC0D305460A7E3046983103F00CFD80
:102570002868007ECFE70FE056E02AE036E03DE035
:102580005AE062E00878800672D520780428AAD341
:1025900004223046091D25E00878400668D52078D9
:1025A000002867D0087D08E0227060E00878000607
:1025B0005ED5207800285DD0487D3070F4E708882B
:1025C000C00555D5207804288DD3042230460C311F
:1025D00008E0088880054BD52078042883D304229E
:1025E0003046083103F0D0FC042094E70888400509
:1025F0003ED5207800283DD0887D36E0088800054B
:1026000036D5207802288DD3087C3070487C09E0CC
:102610000888C0042CD5207802288ED38231087F08
:102620003070487F7070BFE70888800420D520781C
:1026300000281FD0A03117E00888400418D5207862
:10264000002817D0A1310FE012E0088800040FD550
:10265000207800280ED0A23106E00868C00307D514
:102660002078002806D0A331087830702370002528
:102670002846F8BD0425FBE770B50F480F49C4058F
:10268000228880252A4322800D4A53891B0701D4C2
:10269000401EFAD20B4A012010600622054803F0C2
:1026A00073FC2088A843208070BD0000C00608008D
:1026B000383E030025800020A0860100D47F04005E
:1026C0002000005000800040FEB5544D0026686D8B
:1026D0000090FEF796F90021514C002802D1207994
:1026E000022800D100914F4F4F483A68002A0FD17D
:1026F0000278002A0DD04D4A0123D363D36B002BFF
:10270000FCD101229207D2691923DB019A420ED330
:10271000017003F04DFD00287DD0E07801260028EF
:1027200079D005200007808AC00701D0042672E016
:1027300003F0CAFB00286ED13D4800683F2804D151
:102740002079002801D1286D0090A178684603F017
:1027500035FD00285FD0A178684603F0C7FB00284C
:1027600059D003F031FD002855D03868AA281BD075
:10277000972007210125AD07EA6B920A9202521CAD
:10278000EA63EA6B2B4B80021A400243EA63E86B70
:10279000C002C00A49050843E863386804260028D7
:1027A0000DD0AA2813D021E02348FEF798FB009A09
:1027B0000321521E0092A37893422CD8DAE70098A6
:1027C0006421C00203F0AAFB0BE001210CE0009899
:1027D00003F0B7FA1949096803F021FA03F0B8FACF
:1027E000019021790029F0D103F0F4FC1448C06A6B
:1027F0008047286B0004C00FFBD003F0F1FC03F00E
:10280000F5FC10480168C905FCD5052000070189C1
:102810008022914301813046FEBD0000600200200D
:10282000C60608000C80002000800020C000004088
:1028300060010020FF03E0FF01120000188000206B
:102840001C0708000002004038B5002005242407BA
:1028500000902188302001432180218803221143E8
:10286000218002E000BF00BF00BFA18A0906F9D5A0
:1028700061898908890061814B494A885208520060
:102880004A80218881432180208880088000208020
:10289000A08A400701D5FEF7F1F92089802108437D
:1028A0002081208A042188432082A08A8007FCD5C9
:1028B0003E4841050268D20202D40A69520702D496
:1028C000009A002AF6D038BD10B50124A407A06BE9
:1028D000FEF711FB364903F021FB27221201511AA2
:1028E00000D10121334A50601160206B08218843D8
:1028F0000843206310BD10B503F07EFC2E4801890B
:102900004908490001812D4800683F2801D103F0A2
:1029100079FC01208007816904221143816103F061
:1029200077FC03F07BFC03F07FFC25480068AA28B5
:1029300002D11420FEF743FA22490020087010BD8E
:1029400010B503F077FC10BD10B501208007008A98
:10295000000704D503F074FC1A490320087010BD69
:1029600070B51948008885061048AD0E44681348B4
:102970008030006F0078002802D1284603F066FC02
:10298000124800890F4EC00505D5200607D52846F8
:1029900003F062FC01E0200601D502203070200423
:1029A00001D50120307070BD2000005000020040B1
:1029B0007102000040000040003300506001002020
:1029C0000C8000202B80002000200050002C0050A4
:1029D00010B50E212B4803F045FC2B49202003F0B5
:1029E00047FC0021202003F00BFB10BD70B5254DE6
:1029F0000646298804232022244803F079FB044654
:102A0000287903F03BFC2080A670204603F082FB6F
:102A100070BD7CB504461B4E1C483188082320221B
:102A2000C01E03F065FB0480054600241FE030193A
:102A3000817A890708D56200012152195180817A73
:102A4000FD221140817203E0002061004919488095
:102A500060008019C0886A46801C80B201A903F01A
:102A600013FC009829190078641C8871E4B2307B4B
:102A7000A042DCD8284603F04DFB0121202003F0C2
:102A8000BFFA7CBD2C800020646600200680000018
:102A9000FFB587B00F46072069460872BD4C20205D
:102AA000608038780025022856D82073002646E03A
:102AB000B8194078A11905918872012805D1694695
:102AC000087A0821084369460872207B012805D945
:102AD0006946087A102108436946087209980090EF
:102AE0007000AD490019019103900023052202A94D
:102AF000801D03F0CFFB05001CD103980021C08886
:102B000003F0CEFB05460598807A012812D11220E9
:102B100069460874039804ABC0880122401C80B247
:102B2000002103F0C3FB03989C49C088801C80B23D
:102B300003F0C2FB07206946761C0872F6B23878AB
:102B4000B04202D9002DB3D007E0002D05D10121FC
:102B5000202003F055FA00E081250123202290482F
:102B60000A9903F0C5FA057003F0D4FA00200BB0FF
:102B7000F0BDF0B585B00D4600206946854E088150
:102B80003380288803F09EFB3071FF2801D0002499
:102B900052E0834B89215B1C9A1C7E4800F092FD19
:102BA00052E061007B482A190E1803920491F088C4
:102BB0000327801C80B201210A3203F089FB75488B
:102BC0000019817A012920D1E9780427012915D13A
:102BD00004996B4649198A881A81898801290DD17F
:102BE000032181720398017A807A814206D0F088AD
:102BF0000021801C82B2674800F07AFDF08802AAAA
:102C0000C01C80B2022103F063FB6248007B0128F4
:102C10000CD9E000411968460C3100F0C1FAF08887
:102C20006A46C01980B2072103F052FBA978F088E8
:102C300003F036FB641CE4B25648017BA142B0D8D5
:102C40000221202003F0DCF9002005B0F0BD70B5B2
:102C5000504D0C46287903F011FB2188884221D180
:102C6000A078297B88421DD2E17864291AD84000D7
:102C70004019C088E21C801C80B2012103F028FBAF
:102C8000A07829460A31415C890709D540004019DE
:102C9000C0880021801C82B2284600F029FD04E093
:102CA0008A2000E08120FFF7A1FE002070BDF8B56A
:102CB0000F463849802500200A7B09E0440061184E
:102CC000C9883B88C91C8B4200D10025401CC0B27A
:102CD0003049824201D9802DF0D0401EC6B2002D6D
:102CE0000FD1787A397A00020843694608800AD001
:102CF000012808D080252748398800792A4603F022
:102D0000EDFA0020F8BD234C70000019C0880A4677
:102D1000C01C80B2022103F0DBFA6846008801285B
:102D20001FD0A019817AFD2211408172F879002804
:102D3000E1D018480623018819482022801D03F09D
:102D4000D7F904461348007903F098FA20806946C1
:102D50000988A170090AE1702671204603F0DAF9AA
:102D6000C9E7A019817A02221143DEE710B508787D
:102D7000122802D14878FFF739FE002010BD10B5A7
:102D8000044A180A1279904202D10888FFF741FEDE
:102D9000002010BD2C8000202066002001020000D1
:102DA0000180000010B51221244803F05BFA244989
:102DB0001C2003F05DFA00211C2003F021F910BD56
:102DC00030B503460120002103241A46CA40D20729
:102DD00004D04D0022466D1CAA401043491CC9B2C4
:102DE0000929F2D330BD02460020122901D98D20D5
:102DF0007047062A06D0072A07D0082AF8D10729E3
:102E0000F5D170470829F2D170470629EFD37047F2
:102E100070B50A4C0546218802231C22094803F09C
:102E200067F9058003F076F9E088002103F038FAAD
:102E300001211C2003F0E4F870BD00003C8000205C
:102E4000D867002004700000FEB53B4E1C20708047
:102E50001D46174634460888FFF7B2FF02903748F0
:102E6000334601900833132202A90097A01D03F0F6
:102E700011FA040008D1F088002103F011FA044689
:102E800001211C2003F0BCF801231C2229462C48F8
:102E900003F02EF9047003F03DF90020FEBD70B57B
:102EA0000C4625490B802078082814D8CA88083198
:102EB000415C51188DB2822D0BD06178FFF793FFE2
:102EC000010009D16D1C6178A8B2A21C03F000FAC0
:102ED00008E0822100E08121194B17485B1CDA1CB5
:102EE00000F0F0FB002070BD70B51D460C46088850
:102EF00003F0E8F9104AFF281071158009D0A17875
:102F0000D08803F0CDF902211C2003F079F80020CD
:102F100070BD0B4B89219B1C9A1C074800F0D2FB0B
:102F2000F5E710B5044A180A1279904202D10888D0
:102F3000FFF76EFF002010BD3C800020C46600201B
:102F40000170000010B50C21254803F08BF92549CC
:102F5000102003F08DF90021102003F051F810BD6E
:102F600070B506461E480D461446018804231022FB
:102F70001D4803F0BDF804808670C57003F0CAF8E0
:102F800070BD7CB5164C0646E088002103F088F938
:102F90002089002802D0002103F082F960890028EE
:102FA00002D0002103F07CF90F482188042310226D
:102FB000401E03F09DF80546E0886A46801C80B2FA
:102FC00001A903F061F92E8000980078A8702846C6
:102FD00003F0A0F80121102003F012F87CBD0000DE
:102FE00050800020AC68002002400000FFB5674C14
:102FF00083B010206080664816460F46002300927A
:10300000019003221946A01D03F044F90546E0880B
:10301000002103F045F93878C0071CD05D480190C5
:1030200000232046032219460096083003F032F9A7
:103030002089002103F034F95748019000232046ED
:103040000322194600960A3003F024F905466089E8
:10305000002103F025F9002D03D10121102002F0F9
:10306000CFFF012310224D48069903F041F8057067
:1030700003F050F8002007B0F0BD70B5434C0D468A
:103080002380088803F01EF92071FF2823D0A97837
:10309000E08803F005F9E088EA1C801C80B2012179
:1030A00003F016F92089002802D0A97803F0F8F877
:1030B0006089002809D0801C80B22A1D012103F0FC
:1030C00007F9A978608903F0EBF80221102002F0DB
:1030D00097FF002070BD01239B035A1D89212B48B7
:1030E00000F0F0FAF5E770B5284D0C4629798022FA
:1030F000180A88422AD1E9882088891C884201D18F
:10310000012604E02989891C88421FD10226217AE0
:1031100002290AD822460832012103F0D9F8E079C1
:10312000002801D0022E03D00022012E0AD00DE08B
:10313000287903F0A3F8237A024631461846FFF7B0
:103140000FFF03E02188287903F0C8F8002070BD44
:103150001CB50E480C460279190A914214D1A17887
:1031600013290ED016290CD0C0886A46801C80B264
:1031700001A903F089F80098228800780121FFF75F
:10318000EFFE2088FFF7FDFE00201CBD50800020D0
:10319000286800204C68002070680020044000006F
:1031A0000A7902704A7942700B8883701B0AC370D7
:1031B0008A79027149884171090A8171704710B595
:1031C000428800791C4601020823FE480C3102F0B7
:1031D0008FFF082101700121417000218180C18091
:1031E000448002F097FF10BD10B50C4609880029F5
:1031F00010D04288007906230102F2480C31401DAC
:1032000002F076FF10210170218841806188818061
:1032100002F080FF10BD10B50C460988002910D0BF
:103220004288007906230102E6480C31401D02F075
:103230005FFF11210170218841806188818002F047
:1032400069FF10BD10B5428800790C460102DD48C7
:103250000823401F0C3102F04BFF02460320107080
:1032600001205080801E9080022050709471210AAD
:10327000D171104602F04EFF10BD10B542880079A2
:103280000C460102CF480823401F0C3102F030FFEA
:103290000421017021884180618881800221417070
:1032A00000218171C17102F035FF10BD10B5428857
:1032B00000790C460102C3480823401F0C3102F07C
:1032C00017FF0521017021884180618881800221DA
:1032D000417000218171C17102F01CFF10BD70B5F9
:1032E0000D4609886A796B888A18017900240902D9
:1032F00040880C31521E5B1C9A4216DB0246B148D4
:103300000823401F02F0F4FE0146072008706A8877
:10331000521C4A8028886A798218521E8A800220AC
:1033200048708C71CC71084607E00A4601460320BC
:103330000223000302F0DCFE447002F0EBFE70BDDD
:10334000FFB50E46194642881D460A3100798BB2F8
:1033500001029C4881B0801C0C310A9F02F0C8FE1B
:10336000002181800181077046800446C5800120CC
:10337000607020462A460A30039902F005FE204676
:1033800002F0C8FE05B0F0BD1CB56B461A71120AFA
:103390005A710C220092022301AAFFF7D1FF1CBD33
:1033A00070B50546002003460EE006245C430E5B24
:1033B000002E0ED09E00B6186418F6782479A64325
:1033C00000D085205B1CDBB2AB4201D20028ECD0E0
:1033D00070BD9C00A418A478FF2CF3D18320F1E7E2
:1033E000F0B505460020044611E066008E5B002E15
:1033F0000BD1A600B618B778FF2F06D1F6780627AE
:103400007E439E5B002E00D08320641CE4B2AC425D
:1034100001D20028E9D0F0BDFFB581B015460F46B6
:1034200000240A9E26E00498A100425A7179B01D3A
:1034300002F05AFF00281BD0204606223188504354
:103440002952728841194A8032790A712B5C019A9B
:10345000D21A521C4A710B990978A14206D0062251
:103460005143285C6A5C801A491948710B980470B2
:10347000641CE4B2BC42D6D384E7FFB581B01D46DC
:1034800016460746002416E0A0008119CA780A995A
:103490008A420ED1325AA978E81C02F025FF002892
:1034A00007D002996000095A002902D102992A889E
:1034B0000A52641CE4B2BC42E6D363E7F8B50024C8
:1034C0000546002815D04048C069884211D92868AF
:1034D00000280ED08F00C659002E0AD0002A01D035
:1034E00030469047304602F005FF29680020C85159
:1034F00000E081242046F8BD70B5812405460028EF
:103500001DD0314EF069884219D92868002816D09C
:103510002846FFF7D3FF040011D10146F26904E009
:103520008B002868491CC058C9B28A4202D90028B9
:10353000F6D004E0002802D1284600F066F92046C3
:1035400070BD02460020002A02D0080A80001058F0
:103550007047FFB581B007461E460D46039802F03E
:1035600061FDB0421CD038680399FFF7EAFF040000
:1035700016D0628821880423284602F0B9FD05464A
:103580000A98288060880B9A010A3846FFF7B4FF32
:10359000A870284602F0BEFD3146039802F030FDC7
:1035A000F0E6F8B50C7915460E460746FF2C20D0FC
:1035B0007088010AA1420DD02102C0B201433288B5
:1035C000284603E007300000E001002002F098FEEA
:1035D0008C250FE01A462146384600F020F90500F8
:1035E00008D13868A10040580622314602F0CCFCD0
:1035F00000E089252846F8BDFFB5074600689E4DC6
:1036000081B00E4600280ED0002406E02146384640
:103610000A9AFFF753FF641CE4B2E869A042F5D8A8
:10362000384600F0F2F8F0B2049902F021FE0024CE
:1036300006E020023043039902F0E2FC641CE4B28D
:10364000E869A042F5D89DE6FFB581B01F46154652
:103650000C4608460A9E02F0E5FCA84208D139460D
:10366000204602F0CDFC210A32460198FFF744FFC4
:1036700088E6FFB581B00746039800251E460C4634
:10368000002800D1B5887A882846083083B2398866
:10369000204602F02DFD0446387902F0EFFD20802F
:1036A0000398A07100206080A580002E06D030888D
:1036B00060802A46B11DE01D02F066FC204602F043
:1036C00029FD5FE6F8B514460F461E4605464288BA
:1036D00001880623204602F00BFD0446287902F0FB
:1036E000CDFD208027716680204602F013FDF8BDD5
:1036F00070B51446428800790D46010204235F48E4
:103700000C3102F0F5FC002D01D0132100E0122154
:103710000170448002F0FEFC70BD0A880270120A3B
:1037200042708A788270CA78C2700A7902714A79C6
:1037300042718979817107207047427803781202BB
:103740001A430A8082788A70C278CA7002790A7134
:1037500042794A71807988710720704710B5FFF768
:1037600021FB00F08DF8FFF7EDFB00F0AFF9FFF75C
:103770002FF900F017FC10BDF8B5064617460C46A9
:10378000102002F04FFC022805D1E2B21023394686
:10379000304602F0BBFD332002F044FC022805D184
:1037A000E2B233233946304602F0B0FD350211351E
:1037B000284602F037FC002805D0E2B22B463946F5
:1037C000304602F0A3FD1C2002F02CFC022805D19B
:1037D000E2B21C233946304602F098FD202002F068
:1037E00021FC022805D1E2B220233946304602F0FE
:1037F0008DFD312002F016FC022805D1E2B2312302
:103800003946304602F082FDF8BD10B50446006826
:10381000002803D002F06EFD0020206010BDF7B537
:10382000054600680024144E0F4600280BD1F069AD
:103830000121800002F070FD286000280BD0F169A2
:10384000890002F0CBFBF069B84212D92868BF00AA
:10385000C059002801D089240CE00121029802F00F
:103860005BFD0600F7D0029902F0FCFC2868C65107
:1038700000E081242046FEBDE00100200D30000064
:1038800008B5002002460090214B11212148FFF786
:10389000B3FE08BDF8B516460C4607464A880988A7
:1038A0000E231D4802F024FC0546207902F0E6FCB8
:1038B0002880AE70002E0BD0002000900346618857
:1038C00001221448FFF7C0FE284602F023FCF8BD91
:1038D00039460A220831281D02F056FB6088022171
:1038E00002F08EFBF0E770B50E4604464288018870
:1038F00009480423801C02F0FBFB0546207902F0F6
:10390000BDFC2880AE70284602F004FC70BD0000AB
:10391000FC68002060800020014400007CB51E4649
:1039200015460C46088802F0CDFC01466846017138
:10393000458006801423224669465F48FFF731FE22
:1039400002468C2804D0002A04D06946002013E0E7
:1039500001207CBD584829460068FFF7F2FD064665
:10396000A07800280BD030460A22211D083002F032
:103970000BFB002269463046FFF78CFF09E04F4CF5
:1039800030462146FFF75EFCF4800121284602F014
:1039900037FB00207CBD10B547480C461146006837
:1039A000FFF7CFFD2188018161884181C17C491CDD
:1039B000C174002010BD1CB53F480C46114600687C
:1039C000FFF7BFFD024612300094019050893C4B36
:1039D00001210C32FFF720FD00201CBD38B5364810
:1039E0000D4611460068FFF7ACFD0446007902F071
:1039F00045FC2988884206D1A878002809D00128EA
:103A000007D0022805D081212046FFF76CFF002057
:103A100038BDA089002808D00D200090E18901233D
:103A2000AA1C2046FFF78CFCF1E78221ECE770B579
:103A300014460D46104602F0F5FA06461E48214689
:103A40000068FFF77EFD0446012E27D168780A281A
:103A500001D0002822D1E08818491A4D884210D19F
:103A60002089002804D0E07C012803D9842211E0B9
:103A700083220FE0214608312046FFF717FCE5803E
:103A80000CE0A8420AD121460D4A0C310120FFF773
:103A900087FC024621460846FFF7FCFE002070BD69
:103AA0001CB5088800230090074901930248FFF7DE
:103AB00050FD00201CBD00006080002002180000A6
:103AC0000C690020032800000244000010B5082102
:103AD0001A4802F0C7FB1A49332002F0C9FB002143
:103AE000332002F08DFA10BD70B5144D06462988BA
:103AF00018233322134802F0FBFA0446287902F017
:103B0000BDFB2080A670204602F004FB70BD70B59E
:103B10000A4D0446E888002102F0C2FB09482988C2
:103B200004233322001F02F0E3FA048002F0F2FAC9
:103B30000121332002F064FA70BD00006A80002089
:103B4000C469002005CC0000FFB58BB00521C90277
:103B500068468182C91C0182FA490183FA4C3321EB
:103B600061800621992500910822002301953321C7
:103B7000A01D02F0D7FB05007ED1A01D01250095F8
:103B800001900222E08805AB114602F0D1FBE088EB
:103B9000EE4A022102F09CFB03AE01960095E088FC
:103BA00004AB0222132102F0C3FB02AF09200197EC
:103BB0000090E088E64B1022042102F0B9FBE549B1
:103BC0006846007A48706846407A88700A466846B7
:103BD0001321808902F07CFB01960095E08804ABFC
:103BE0000222132102F0A4FB092001970090E08833
:103BF000D94B1022042102F09BFBD8496846007A79
:103C000048706846407A88700A4668461321808961
:103C100002F05EFB01960095E08804AB02221321BE
:103C200002F086FB01970095E088CD4B102204211D
:103C300002F07EFBCB496846007A48706846407ABD
:103C400088700A4668461321808902F041FB01967C
:103C50000095E08804AB0222132102F069FB0920E1
:103C600001970090E088C04B1022022102F060FB17
:103C70006846BE49007A00E058E048706846407ADD
:103C800088700A4668461321808902F021FB01965C
:103C90000095E08804AB0222132102F049FB0920C1
:103CA00001970090E088B24B1022142102F040FBF3
:103CB000B0496846007A48706846407A88700A467B
:103CC00068461321808902F003FBAB4D01960095F5
:103CD000E08804AB0222132102F02AFB0197009531
:103CE000E088A64B1022012102F022FBA44968467D
:103CF000007A48706846407A88700A466846132100
:103D0000808902F0E5FA09A90920019100900222B8
:103D1000E08806AB114602F00BFB0546E088002167
:103D200002F0BEFA0121332002F06AF901233322A6
:103D300094480E9902F0DCF9057002F0EBF90020CE
:103D40000FB0F0BD3EB5804C0D46E08802AA0C30A5
:103D500080B2694602F098FAE08801AA0D3080B27C
:103D6000694602F091FAE088AA1C0C3080B2012169
:103D700002F0AEFA01980088002806D0E088002101
:103D80000C3082B22046FFF7B3FC00203EBD10B5D8
:103D90006D480A46C0880421801D80B202F098FA5E
:103DA000002010BD38B50D4600206946664C0880DD
:103DB0002380288802F086FA2071FF2817D0E08837
:103DC0006A460D3080B2022102F082FAE0886A462B
:103DD0000C3080B2012102F07BFAA978E08802F071
:103DE0005FFA0221332002F00BF9002038BD654A4A
:103DF00033239B02521C89215348FFF763FCF4E7ED
:103E0000F8B5514D0C4629798022180A88427DD197
:103E1000E988208826468B1C0027083698420ED158
:103E2000012100916188324602F052FAE0790028BF
:103E300075D05448082333222988C01F10E00B1D79
:103E4000984229D1022100916188324602F040FA5D
:103E5000E079002863D04B48298808233322801F4B
:103E600002F046F90646287902F008FA30807760B9
:103E7000E07A01067160A07A000401437160607A03
:103E8000000201437160207A014371600098B070B4
:103E9000304602F03FF942E00B460A3398421BD10C
:103EA00004200090E079002839D03648298818236A
:103EB0003322001F02F01CF90746287902F0DEF9D0
:103EC000388062883146381D02F05EF8A078F870BC
:103ED0000098B8703846DCE70B460833984220D18A
:103EE000032100916188324602F0F2F9E07900285E
:103EF00015D02448298806233322401F02F0F8F801
:103F00000646287902F0BAF9308000E018E0B78060
:103F1000607A0102B180207A0143B180B6E70022C5
:103F200007E00D31884204D16188324602F0D0F9B1
:103F3000F5E7A079012803D12188287902F0CEF98C
:103F40000020F8BD022900006A800020606900207E
:103F5000626900200C6C0020726900201F6C002038
:103F600082690020326C002092690020456C00209C
:103F7000A2690020586C002001020000B2690020F4
:103F80006B6C002009CC000010B5054A180A1279A4
:103F9000904202D10888FFF7BAFD002010BD000052
:103FA0006A80002010B50A21264802F05BF92649F4
:103FB000312002F05DF90021312002F021F810BD1E
:103FC00070B5204D06462988042331221F4802F08F
:103FD0008FF80446287902F051F92080A670204617
:103FE00002F098F870BD7CB5164C0021E08802F014
:103FF00057F91648218802233122401E02F078F832
:104000000546E08801AA801C80B2694602F03CF9AE
:10401000207902F033F92880284602F07BF801214C
:10402000312001F0EDFF7CBD10B5044605480123A9
:10403000018806483122001D02F05AF8047002F08F
:1040400069F810BDA46C0020546A002002C400006E
:10405000FFB589B00521C90268468182C91C018269
:1040600092490183924C3121618002213A250091CD
:104070000422002301953121A01D02F053F905000F
:104080005ED1A01D012500950190E08805AB0222BC
:10409000102102F04DF9E088864A102102F018F94B
:1040A00003AF01970095E08804AB0222132102F0D0
:1040B0003FF902AE092001960090E0887E4B102265
:1040C000012102F035F97D496846007A487068465A
:1040D000407A88700A4668461321808902F0F8F811
:1040E00001970095E08804AB0222132102F020F929
:1040F000734801960090E088724B1022012102F073
:1041000017F971496846007A48706846407A8870A5
:104110000A4668461321808902F0DAF809200196E0
:1041200000900222E08806AB114602F001F9054634
:10413000E088002102F0B4F80121312001F060FF95
:104140000123312261480C9901F0D2FF057001F082
:10415000E1FF00200DB0F0BD38B50D4601206946E5
:10416000534C08802380288802F0ACF82071FF2887
:1041700016D0A978E08802F093F8E088EA1C801C49
:1041800080B2012102F0A4F8E0882A1D001D80B24F
:10419000012102F09DF868792072002808D00AE019
:1041A00031239B02DA1D89214148FFF78BFA0DE08C
:1041B000002069460880E0886A46401D80B20221DE
:1041C00002F086F80221312001F01AFF002038BDEC
:1041D00070B5374D0C46287902F050F82188884296
:1041E00011D1E888A21C001D80B2012102F070F8F4
:1041F000287AC0070AD0E8880021001D82B228462C
:10420000FFF776FA02E08120FFF70EFF002070BD75
:10421000F8B5274D180A0C462B79002180229842C8
:1042200031D1EB8820889E1CB04200D10121274665
:1042300008375B1D984214D0002910D03A4601215E
:1042400002F046F8E07900281CD0207AFFF7B8FE8B
:10425000207A002800D001201D49087012E00229B0
:1042600011D1637A217A1E020E4301D0012E0AD1A8
:104270003A46022102F02CF8287A012E09D0400893
:104280004000287200222188287902F027F80020B7
:10429000F8BD01210843F4E710B50549180A09796A
:1042A000884201D1FFF79FFE002010BD02290000C7
:1042B000A46C0020246A0020346A00207E6C002058
:1042C00001020000446A0020916C002004C4000038
:1042D000E080002038B50124684604700C2149486C
:1042E00001F0C0FF474D6946EC702A1D352002F0F1
:1042F00025F8002800D02C7100F0F8FC424932204B
:1043000001F0B6FF0021322001F07AFE00F0B2F891
:1043100038BD10B500F0B8FD10BD10B53948022306
:1043200080783222010239480E3101F0E1FE01218C
:1043300001701321417001F0EDFE10BD10B504466F
:1043400030482C2380783222010230480E31801E02
:1043500001F0CEFE0146203004720022427208466F
:1043600001F0D8FE10BD10B5502332220D2128488F
:1043700001F0BEFE044600F008FD204601F0CAFE32
:104380000221322001F03CFE10BD214810B501236E
:1043900032220D210B3801F0ABFE0221017001F039
:1043A000B9FE10BD10B500F092FD10BD194B10B54F
:1043B0009A4201D91A4602E0002A00D1012201F0F6
:1043C000C3FF10BDF8B50646114815460F46252314
:1043D00032220D21C01C01F08BFE04460120207703
:1043E0002046062239461D3001F0CEFD2320065519
:1043F00065822582204600F099FD204601F08AFE64
:10440000F8BD000074800020AC6A00200438000071
:104410000E3400003075000010B501F09BFF2549F7
:1044200001F0B8FD2448081810BDF8B5234D064624
:10443000A876002401F08EFF2919641CE4B20874E8
:10444000082CF7D300241027381BB04201DD0020D0
:1044500007E001F07FFFC117090E0918090A0902D8
:10446000401A2855641CE4B2102CEDD301F072FF01
:104470002883F8BD10B52421104801F0F3FE00F0A8
:1044800046FC10BD10B50E4802238078322201028E
:104490000C480E3101F02CFE0D210170074920312E
:1044A0008978417001F036FE0321322001F0A8FD29
:1044B00010BD0000A0BB0D00A08601008080002080
:1044C000748000201A38000010B5084609781C4690
:1044D0000B0001F0ADFD080520202008181B1E2050
:1044E00000F027FD17E04178012904D0002902D00F
:1044F000022903D00FE000F034FD0CE01146204605
:1045000000F096FD07E000F04AFD04E000F048FDF1
:1045100001E000F062FD002010BD10B50878304CBD
:10452000801E030001F084FD020214188878A07038
:10453000C0070AD02B492A4A4879203AD076284821
:104540000622001F891D01F01FFD00F06CFD03E035
:10455000FFF7E3FE0020A070002010BDF8B518465C
:104560000D4601461223204801F0C2FD04462846AC
:1045700000F05AFD0027002821D0194EB078C0075E
:104580001DD030460822A91C103801F00BFE00286F
:1045900015D130462038018B2A8891420FD1012154
:1045A0002170807E6074314610222039601C01F039
:1045B000EBFCB078FFF7C2FE00F039FD00E0277099
:1045C000204601F0A7FD2078002801D1FFF7A5FEC5
:1045D0000020F8BD10B500F029FD002010BD00003E
:1045E000A0800020748000201838000010B510460C
:1045F00001F018FD002809D1012332220D2148487D
:1046000001F076FD0121017001F084FD002010BD54
:1046100070B5087815460F282DD008DC01280DD07C
:1046200002282CD003281CD00E2830D11FE01028DF
:1046300025D0112823D0122829D123E0487800283A
:1046400025D13748222332220D21801C01F050FD54
:1046500004460146284600F03BFC204601F05AFD86
:1046600015E04878002812D100F046FC0FE04878A9
:1046700000F04FFC0BE0487800F052FC07E000F03F
:1046800054FC04E04878442801D100F051FC00209B
:1046900070BD70B51C4610460D4601F0C3FC0228E3
:1046A00005D12049200A8870284600F034FB0020FC
:1046B00070BD70B5087815460C460A2810D1104612
:1046C00001F0B0FC04280BD16078002802D000F083
:1046D000FDFB05E00521284601F092FC00F018FCE6
:1046E000002070BD10B5104600F0BFFB002010BDCB
:1046F00010B510460C4601F095FC012808D1207831
:10470000002805D1FFF705FE002801D000F009FCC4
:10471000002010BD10B5084600F009FC002010BDB7
:10472000023400007480002010B5202103233222BF
:10473000880201F0DDFC01210170417000218170CF
:1047400001F0E8FC10BD10B50120FCF787FE4849D8
:10475000087010BD10B504464548C1700271437120
:104760001C2332222021434801F0C2FC424901238C
:10477000098801808370C37000228280C280047225
:1047800042728472C2723D4C8481C28104240474DA
:104790004274837401F0BEFC10BD70B5344C012529
:1047A0006570E078002803D06179207901F050FE2F
:1047B000A570C82232213248FFF7F8FD70BD10B550
:1047C00004462C48042332222021C01C01F090FC16
:1047D00029490988018000218170C47001F09AFC88
:1047E00010BD70B50120FCF739FE214D0446287834
:1047F000844202D02046FFF7E2FF2C70E8780028C0
:1048000003D0052C01D2FFF7C8FF70BD10B51849C1
:104810000A22C8801A483221401EFFF7C7FD10BD8A
:10482000174810B53221401E01F008FC10BD70B5CC
:104830000F4C00256570E078002803D0617920795D
:1048400001F028FEA57032210D4801F0F7FB70BD84
:1048500010B50748C178002906D08178012941792F
:10486000007902D001F016FE10BD01F0F1FD10BD7F
:10487000A68000200280000074800020AD27000088
:1048800003C8000010B532220C46012311469002E5
:1048900001F02EFC2178017001F03CFC002010BDDD
:1048A000002070470020704710B51446FFF799FFAD
:1048B0001448214602881448FFF778FD002010BDF7
:1048C00070B5124815460078002818D0104C1149D0
:1048D00011480D4E2278761C09780078002A05D000
:1048E00001F0D8FD00202070142204E001F0B0FD9A
:1048F00001202070052229463046FFF757FD002091
:1049000070BD0000AC80002002C80000A98000201B
:10491000A8800020AB800020AA800020704710B53E
:1049200011210E233222880201F0E2FB0B49098893
:1049300001800021817001F0EDFB10BD10B5042352
:1049400032221121064801F0D3FB04490988018075
:104950000221817001F0DEFB10BD00007480002098
:104960000444000000207047354A107251727047AD
:1049700010B533480021417101600171417A007A1C
:1049800001F088FD32212F4801F058FB10BD10B511
:10499000102106233222880201F0AAFB0446FFF709
:1049A000E7FF29482649008820800120A0708879E7
:1049B000E070C8792071204601F0ACFB10BD10B545
:1049C0001F4C012860710ED0322020600120207120
:1049D000617A207A01F03CFD2088322182B21948A8
:1049E00001F0B2FC10BD9620EFE710B5042332228F
:1049F0000121164801F07CFB134909880180002140
:104A0000817001F087FB10BD10B501233222102107
:104A10000F4801F06DFB0121017001F07BFB10BD1F
:104A200010B5FFF7A1FF064801790129417A007A04
:104A300002D001F02FFD10BD01F00AFD10BD0000F5
:104A4000B080002001C80000748000200F04000026
:104A50000340000010B510460C4601F0E3FA0128AF
:104A600009D1322201231146900201F041FB217845
:104A7000017001F04FFB002010BD20480A8800881B
:104A8000904202D188781E4988710020704710B585
:104A90000A781B48002A01D0002105E0174A4B88FC
:104AA00012889A4201D10979C171FFF770FF002085
:104AB00010BD10B58878002802D0FFF780FF01E014
:104AC000FFF756FF002010BD70B50D4C154621466E
:104AD0002279087A497A002A03D001F0DBFC002011
:104AE00002E001F0B5FC012020712088294682B245
:104AF000044801F029FC002070BD000074800020F3
:104B0000B080002001C80000704710B51C210223AE
:104B10003222880201F0ECFAFF216431018001F0B9
:104B2000F9FA10BD10B50446042332221C210548B1
:104B300001F0DEFA0480012181700021C17001F0D2
:104B4000E9FA10BD03700000FEB510460D4601F0F5
:104B500069FA012872D12878002865D10E23322203
:104B60001C21384801F0C4FA0446002020700B27AD
:104B700067703A4634A1A01C01F006FA204601F005
:104B8000C9FA0A2332221C212E4801F0B1FA044648
:104B9000012020700720607002462EA1A01C01F0A9
:104BA000F3F9204601F0B6FA0B2332221C212548E6
:104BB00001F09EFA044606202070082666703246F0
:104BC00026A1A01C01F0E0F9204601F0A3FA0E2373
:104BD00032221C211B4801F08BFA0446052020706C
:104BE00067703A4620A1A01C01F0CEF9204601F0E2
:104BF00091FA0A2332221C21124801F079FA044664
:104C00000670072060700120A070D22168460180E4
:104C1000F90141807101818006226946E01C01F0A2
:104C2000B3F9204601F076FA3222012311469002B0
:104C300001F05EFA2978017001F06CFA0020FEBDE7
:104C400000207047027000004469616C6F67205358
:104C5000656D69004441313435383000123456FFF7
:104C6000FE9ABCDE00000000765F332E302E342E1C
:104C70003237300010B5FA4801F0ACFC012108468B
:104C800001F0C2FB002805D001225002002301469A
:104C9000FCF733FB10BD10B5F2484079002802D074
:104CA000FFF766FE06E0112001F0BCF9022801D1F1
:104CB000FFF744FE05200007808A400701D5FBF777
:104CC000DDFFFBF79EFE00280DD0FBF746FEE64811
:104CD0008168012211438160FBF78FFE002232219F
:104CE000E24801F03DFBFFF7C5FF10BD10B50721FD
:104CF0000020FFF739FEDB4902208871FFF723FD12
:104D0000FFF702FF00F0E2F900F030FF10BDD848D5
:104D100001218170704770B5D64C0546A078FF28F8
:104D200030D0FFF734FED44801220023114600782A
:104D3000FFF710FDD148FFF769FDFFF7F0FD208870
:104D4000FFF7F0FE00F0E0F90122032302211046F4
:104D500000F019FF0521322001F052F92888208047
:104D6000687A6071294606220A31A01D01F00CF90B
:104D7000BF488078FFF7E2FABC483221401E01F0BC
:104D80005DF970BDFFF7EFFA70BDF0B5044691B064
:104D90000E20207000206070B948A081E0810720BB
:104DA0002074012060741C20E074254622461F21D7
:104DB0002035143229741646511E0B2001F0BEFA1C
:104DC000002805D00822E274AEA1304601F0DCF8DC
:104DD000224631321746511E0C2001F0AFFA00284E
:104DE00005D00A222A74AAA1384601F0CDF8E07C49
:104DF0001A21081A45B2002D2FDD3E2069460870A1
:104E000001AA022001F09AFA002806D00B22684677
:104E10000270A2A101A801F0A9FA68460078002852
:104E20001BD0A84200D2054668460570E07C6D1C88
:104E30008555E27C2046092115301154E17C401C47
:104E40000B186846027801A9184601F09DF86846DB
:104E50000078E17C801C0818E0748448924A322172
:104E6000401EFFF7A3FA11B0F0BD10B501F0DAF85B
:104E70000446FFF7D5FC032C03D0052C01D0042CED
:104E800001D1FFF770FA10BD70B57A4C0025E078BB
:104E9000062818D2030001F0CBF806120A04070D09
:104EA0001012FFF7B1FD0AE0FFF73EFC07E0FFF745
:104EB0002CFE04E000F01CF901E000F058FEE07860
:104EC000401CE07000E00125284670BD7047704727
:104ED000032008700A204870002048820875487531
:104EE0001722CA8208220A8310224A8388836422F6
:104EF000CA8320310870704710B50121322001F0BB
:104F00007FF8FFF706FA002801D0FFF72CFA10BD52
:104F10007047564810B53221401E01F08FF810BD81
:104F2000704710B5FFF71FFA10BD70477047704704
:104F3000704710B51E2332220E215C4801F0D8F8CC
:104F40000121017041700022C270102343710323BC
:104F500083700171027204228271C17101F0DAF86A
:104F600010BD70B51E2332220E21504801F0C0F84A
:104F70000446FFF751FA05460420207001206070B6
:104F80001021A01C01F06EF9280E6071280C207110
:104F9000280AE070A570204601F0BCF870BD70478B
:104FA00070B505461E2332220E21404801F0A0F8BC
:104FB00004466878FFF739FA0620207001206070F7
:104FC0001021A01C01F04EF9062239A1A01C00F00E
:104FD000DBFF204601F09EF870BD70B505461E232C
:104FE00032220E21314801F083F804466878FFF739
:104FF0001CFA072020701E49012060702039887E2D
:105000002077088B6082204608221031143000F08F
:10501000BBFF174910222039A01C00F0B5FF204625
:1050200001F078F870BD70470120704770477047F5
:10503000704710B5FFF7A9F90C4C3221641E2046C9
:1050400000F0FCFFFBF796FC3221204600F0F6FF53
:10505000FFF78EFCFBF7CDFCFFF70CFE002010BD28
:10506000974C0020B08000200033005006C800009C
:10507000A080002074800020A6800020701700000F
:105080004C04000007030318021804180000000075
:1050900009FF006052572D424C4500004441313415
:1050A0003538302050585200504600001438000067
:1050B000ABAB45552301000010B5104600F0B2FF20
:1050C000022801D1FFF74FF90020C8E7FE48002170
:1050D000017441618161C160FC4A0177116514214D
:1050E00001707047F848002101744161C160704748
:1050F00010B5012332223321F54800F0F9FF0021D9
:10510000017001F007F810BD10B5332110233222D1
:10511000880200F0EDFFEF490988018001218170CC
:1051200000214160816000F0F5FF10BD10B504461C
:10513000E94804230288E6483321401E00F0D8FFE6
:10514000E44909880180847000F0E4FF10BD10B5C7
:10515000DD4C2078022801D1FCF7F4FC20780328EC
:1051600001D1FCF789FC1420207010BD08B5AA21DC
:1051700068460170D44802784068132A03D0801C26
:10518000FCF78AFD09E0811C01226846FCF734FB2C
:1051900040B2012801D0062008BD022008BD10B58C
:1051A000C94C2078C00601D4012000E01020FFF790
:1051B000BDFF002020746061A061E060207710BD19
:1051C000F8B50F460021060EBF4C35463960142E47
:1051D00017D2257080B26060002D01D0012D07D15B
:1051E000BE49280608436160002101F0C5F8386017
:1051F0002078122801D0132803D1606802280BD828
:105200006074112E26D00EDC022E20D006DC002E7B
:105210001DD0012E13D11AE0112022E0032E16D04A
:10522000102E0CD116E0FD2E2CD004DC122E0ED048
:10523000132E04D10BE0FE2E16D0FF2E0CD008202A
:10524000FFF774FF1420207000203860F8BDFFF7CE
:10525000A6FFF8BD082004E0FFF779FFFFF742FF43
:105260000320FFF763FFF8BD207F002801D0042052
:1052700001E0FFF77BFFFFF759FFFFF768FFFFF73C
:1052800031FFF8BD002001F07DF8F8BD10B50446EF
:105290009148042302888E483321801E00F028FFA5
:1052A000046000F037FF10BDFEB506460020012463
:1052B0006404009001900346024601460290651284
:1052C0003046FCF783FBFCF73CFA854980B2401876
:1052D00002D0012800D1840429462046FCF730F989
:1052E000FEBDF8B5044678487E4E017A00270906CF
:1052F000090FA171027AFF4313071B0FE3710289A3
:105300001204120F227002891205120F6270826855
:105310001202120FA27082681203120FE2708268EA
:10532000120F227180680001000F60712820414334
:105330008A1999005058002801D0384600E0012011
:105340005050A579E279C11701F022F82A0101F045
:105350001FF8654A13685568184329431060516067
:10536000A078282148438219E0788100505800280D
:1053700001D0384600E001205050A578E278C117EE
:1053800001F006F82A0101F003F8574D2A686B680E
:105390001043194328606960207928214843821905
:1053A000607981005058002801D0384600E0012083
:1053B000505026796279C11700F0EAFF320100F0FF
:1053C000E7FF2A686B6810431943286069602078FA
:1053D0002821484343494118607880000A58002A30
:1053E00000D101270F50384626786278F91700F06F
:1053F000CFFF320100F0CCFF2B686A6818431143DD
:1054000028606960012000900326360261782078C8
:105410000823324600F0CEFF00250095E179A079FF
:105420000723324600F0C6FF0095E178A0780623F6
:10543000324600F0BFFF00956179207905230022F4
:1054400000F0B8FFF8BDF8B504461F48254F017AB3
:1054500000250906090FA170017AED430907090F1C
:10546000E17001890904090F217002891205130FE7
:1054700063708068000C606028204143CA1999005D
:105480005058002801D0284600E0012050502678CE
:105490006278C11700F07CFF320100F079FF124EF4
:1054A000326873681043194330607160A078282116
:1054B0004843C119E07880000A58002A00D101252C
:1054C0000D502846A77811E0BC800020B06C002069
:1054D00008CC0000748000206A800020FC6D002051
:1054E000F010FFFF2890002020900020E278E917BC
:1054F00000F04EFF3A0100F04BFF3368726818432A
:10550000114330607160002500956178207809238F
:105510002A4600F04FFF0095E178A0780A23002288
:1055200000F048FFF8BDF0B5FD4D02242878E601F3
:1055300085B000280AD0012808D029464A68896821
:1055400002282AD003284BD0082476E0F54F000625
:105550003843002100F010FF8004010C287C421821
:10556000B24248D8711A091A8AB2EF49411838462E
:10557000FC38801805E00A6804C02A7C121F2A74CF
:10558000091F2A7C002AF6D128780021000638431A
:1055900000F0F2FEFFF77AFE4BE0012040061043D8
:1055A00000F0EAFE8004070C287CC019B04222D823
:1055B00002A8FFF748FF0398012380B200220221CE
:1055C000FCF79AFA68682A7CC119D748001DFCF7D5
:1055D000B0FB297C814200D00624FCF7BDFA1DE017
:1055E00003200006104300F0C7FE8004070C287C4F
:1055F000C019B04201D907241FE06846FFF771FEC9
:105600006846FFF751FE68682A7CC119C648001D2C
:10561000FCF7F2F8297C814200D0062428786968DA
:1056200000060843A96800F0A7FEFFF72FFE022C32
:1056300003D1FFF78CFDFFF755FD2046FFF776FD00
:1056400005B0F0BD70B502460020160BC04336030E
:105650000C0B090500D0641C002C01D000250BE0C8
:105660000124002520213046FCF742F801210903DE
:105670007618002802D16D1CA542F3D370BD00211D
:10568000FF2802D0401CC0B2704708467047FF2870
:1056900002D0FF2905D006E0FF2908D0002906D056
:1056A00001E0002801D0884201D902207047012082
:1056B000704710B59A4B1B78132B02D0FCF7CAFA2F
:1056C00010BDFBF7BDFF10BDF7B59CB000271E98BD
:1056D0000C463E46402805D32078702802D16078D9
:1056E000512802D012201FB0F0BD65688C492846B1
:1056F000403008621F210C22090303A8FFF7D9FFDD
:105700000C2847D16846007B702803D16846407B4F
:10571000522801D01420E6E70498019005981390D0
:10572000002D03D00199401AA84201D21320DAE7D4
:1057300003A840220290FFF7BCFF40282AD1684608
:10574000C07B15906846817B06A8189020460C30D7
:105750001790AA2907D16846007B702803D16846B4
:10576000407B512803D00127002015900BE0102228
:105770001899179800F016FD002804D1E0690A99DD
:10578000884200D10227402213990298FFF791FF27
:10579000402801D01620A6E76846C07B00906846E6
:1057A000807BAA2807D16846007B702803D1684611
:1057B000407B512803D00126002000900BE01022EE
:1057C0001899179800F0EEFC002804D1E0690A99B6
:1057D000884200D102261C98002801D0022807D94F
:1057E000012F11D0012E1CD000991598FFF74FFF03
:1057F0001790FF22402103A800F0D0FD179802283F
:1058000015D0022F2BD004E0FF22402103A800F086
:10581000C5FD434901984860002E22D0022E20D0B9
:105820000EE0FF22402103A800F0B8FD01E0022EA7
:1058300015D03B4913984860002F0ED0022F0CD092
:105840000126374F3878132810D0402203A87968F2
:10585000FCF76FFA402839D10FE0159802E01520C7
:1058600041E70098FFF70BFF0646EAE74035A9B28B
:105870007868FFF7E7FE002828D16846C67360689D
:105880000490A068059020460C300EC8A0690990CD
:1058900006A80EC0E0690A90217868460173617815
:1058A000417320461E9C39784030403C132979686A
:1058B00022460DD04031FCF73CFAA04206D14022EE
:1058C00079680298FCF735FA40280CD006200AE7E0
:1058D0004031FBF791FFA042F8D14022796802984D
:1058E000FBF78AFFF0E70020FDE6F0B50C4C0E4A0E
:1058F0000225002085B05432616904E0237F165CE4
:1059000073402377401C8142F8D820780026122863
:105910000CD0132838D00825E8B2FFF707FC8FE633
:10592000BC800020FC6D0020AC6C002002A8FFF7BA
:105930008AFD0398012380B200220221FCF7DCF8E3
:105940006269002A02D0A069002811D0A069216AEA
:1059500082184B1C9A4240D88A4201D9091A6161C7
:1059600061682746091826486269FCF7E2F928E0D1
:10597000607C2349FFF7A8FE002829D085B2666124
:10598000A069FFF783FCC7E76846FFF7AAFC6846F3
:10599000FFF78AFC6269002A02D0A0690028E7D0DC
:1059A000A069216A82184B1C9A4216D88A4201D9F2
:1059B000091A616161682746091811486269FBF795
:1059C0001BFF7969814208D1B8694018B861D6E7F0
:1059D0006269A1698918A161D1E70625CFE770B591
:1059E000084C094D2146284600F0C6FC0104090C6C
:1059F00005D083B2024A2146284600F0D5FC70BD8E
:105A0000006D0020000306050028000310B51046B5
:105A10000C4600F007FB012809D132220123114670
:105A2000900200F065FB2178017000F073FB00200C
:105A300010BD70B54A4C0D46207814283DD2A97887
:105A400000293CD0E168002933D0C00618D4207C5E
:105A5000EA78811850292ED842494018291D00F0B3
:105A600093FA207CE9784018C0B22074E168814242
:105A700001D1FFF758FD207C18E0FFF757FB1EE02F
:105A8000EA786069FF2381180133994213D83649B7
:105A90004018291D00F078FAE978606940186061C3
:105AA000E168814201D1FFF720FF6069E168884227
:105AB00005D90520E1E70720DFE70820DDE7002022
:105AC00070BD08B58878002806D048686946FFF799
:105AD00077FB0098FFF7DAFB002008BD10B5887847
:105AE00000280ED01E4A49689160107802280AD01A
:105AF000032808D0122804D0132802D00820FFF76A
:105B000015FB002010BD52680006104300F034FC65
:105B1000FFF7BCFBF5E770B588780D4600281DD06F
:105B2000A888002805D00E4C2178CA0603D4820725
:105B300001D005200EE0142910D2C90605D4502842
:105B400007D8FFF7CFFAA88807E0FF210131884284
:105B500003D90720FFF7EAFA00E0E060002070BDFB
:105B6000BC800020B06C0020006D0020704710B594
:105B70000123322231211C4800F0BAFA01210170C0
:105B800000F0C8FA10BD70B5184C00256070A17007
:105B9000E27023713121257006233222880200F041
:105BA000A7FA13490988018001218170C570057128
:105BB000457100F0AFFA70BD10B50C4C214622784B
:105BC000C8780979012A08D0002A05D100F062FCC2
:105BD000A178607800F03CFC10BD00F039FCA178A1
:105BE000607800F057FC10BD03C40000E080002086
